{
  "contractName": "RealEstateNFT",
  "abi": [
    {
      "inputs": [],
      "stateMutability": "nonpayable",
      "type": "constructor"
    },
    {
      "anonymous": false,
      "inputs": [
        {
          "indexed": false,
          "internalType": "address payable",
          "name": "owner",
          "type": "address"
        },
        {
          "indexed": false,
          "internalType": "uint256",
          "name": "price",
          "type": "uint256"
        },
        {
          "indexed": false,
          "internalType": "uint256",
          "name": "tax",
          "type": "uint256"
        },
        {
          "indexed": false,
          "internalType": "address",
          "name": "approvedBuyer",
          "type": "address"
        },
        {
          "indexed": false,
          "internalType": "bool",
          "name": "isValid",
          "type": "bool"
        }
      ],
      "name": "approve_Property",
      "type": "event"
    },
    {
      "anonymous": false,
      "inputs": [
        {
          "indexed": false,
          "internalType": "address payable",
          "name": "owner",
          "type": "address"
        },
        {
          "indexed": false,
          "internalType": "uint256",
          "name": "price",
          "type": "uint256"
        },
        {
          "indexed": false,
          "internalType": "uint256",
          "name": "tax",
          "type": "uint256"
        },
        {
          "indexed": false,
          "internalType": "address",
          "name": "approvedBuyer",
          "type": "address"
        },
        {
          "indexed": false,
          "internalType": "bool",
          "name": "isValid",
          "type": "bool"
        }
      ],
      "name": "buy_Property",
      "type": "event"
    },
    {
      "anonymous": false,
      "inputs": [
        {
          "indexed": false,
          "internalType": "address payable",
          "name": "owner",
          "type": "address"
        },
        {
          "indexed": false,
          "internalType": "uint256",
          "name": "price",
          "type": "uint256"
        },
        {
          "indexed": false,
          "internalType": "uint256",
          "name": "tax",
          "type": "uint256"
        },
        {
          "indexed": false,
          "internalType": "address",
          "name": "approvedBuyer",
          "type": "address"
        },
        {
          "indexed": false,
          "internalType": "bool",
          "name": "isValid",
          "type": "bool"
        }
      ],
      "name": "change_Price",
      "type": "event"
    },
    {
      "anonymous": false,
      "inputs": [
        {
          "indexed": false,
          "internalType": "address payable",
          "name": "owner",
          "type": "address"
        },
        {
          "indexed": false,
          "internalType": "uint256",
          "name": "price",
          "type": "uint256"
        },
        {
          "indexed": false,
          "internalType": "uint256",
          "name": "tax",
          "type": "uint256"
        },
        {
          "indexed": false,
          "internalType": "address",
          "name": "approvedBuyer",
          "type": "address"
        },
        {
          "indexed": false,
          "internalType": "bool",
          "name": "isValid",
          "type": "bool"
        }
      ],
      "name": "sell_Property",
      "type": "event"
    },
    {
      "inputs": [],
      "name": "government",
      "outputs": [
        {
          "internalType": "address payable",
          "name": "",
          "type": "address"
        }
      ],
      "stateMutability": "view",
      "type": "function"
    },
    {
      "inputs": [],
      "name": "name",
      "outputs": [
        {
          "internalType": "string",
          "name": "",
          "type": "string"
        }
      ],
      "stateMutability": "view",
      "type": "function"
    },
    {
      "inputs": [
        {
          "internalType": "uint256",
          "name": "",
          "type": "uint256"
        }
      ],
      "name": "properties",
      "outputs": [
        {
          "internalType": "address payable",
          "name": "owner",
          "type": "address"
        },
        {
          "internalType": "uint256",
          "name": "price",
          "type": "uint256"
        },
        {
          "internalType": "uint256",
          "name": "tax",
          "type": "uint256"
        },
        {
          "internalType": "address",
          "name": "approvedBuyer",
          "type": "address"
        },
        {
          "internalType": "bool",
          "name": "isValid",
          "type": "bool"
        }
      ],
      "stateMutability": "view",
      "type": "function"
    },
    {
      "inputs": [],
      "name": "propertyCounter",
      "outputs": [
        {
          "internalType": "uint256",
          "name": "",
          "type": "uint256"
        }
      ],
      "stateMutability": "view",
      "type": "function"
    },
    {
      "inputs": [
        {
          "internalType": "uint256",
          "name": "",
          "type": "uint256"
        },
        {
          "internalType": "uint256",
          "name": "",
          "type": "uint256"
        }
      ],
      "name": "transactions",
      "outputs": [
        {
          "internalType": "address",
          "name": "previousOwner",
          "type": "address"
        },
        {
          "internalType": "address",
          "name": "newOwner",
          "type": "address"
        },
        {
          "internalType": "uint256",
          "name": "price",
          "type": "uint256"
        },
        {
          "internalType": "uint256",
          "name": "timestamp",
          "type": "uint256"
        }
      ],
      "stateMutability": "view",
      "type": "function"
    },
    {
      "inputs": [
        {
          "internalType": "address",
          "name": "seller",
          "type": "address"
        }
      ],
      "name": "mint",
      "outputs": [],
      "stateMutability": "nonpayable",
      "type": "function"
    },
    {
      "inputs": [
        {
          "internalType": "uint256",
          "name": "_propertyId",
          "type": "uint256"
        },
        {
          "internalType": "address",
          "name": "_buyer",
          "type": "address"
        }
      ],
      "name": "approveSale",
      "outputs": [],
      "stateMutability": "nonpayable",
      "type": "function"
    },
    {
      "inputs": [
        {
          "internalType": "uint256",
          "name": "_propertyId",
          "type": "uint256"
        }
      ],
      "name": "transfer",
      "outputs": [],
      "stateMutability": "payable",
      "type": "function"
    },
    {
      "inputs": [
        {
          "internalType": "uint256",
          "name": "_propertyId",
          "type": "uint256"
        }
      ],
      "name": "getProperty",
      "outputs": [
        {
          "internalType": "address",
          "name": "",
          "type": "address"
        },
        {
          "internalType": "uint256",
          "name": "",
          "type": "uint256"
        },
        {
          "internalType": "uint256",
          "name": "",
          "type": "uint256"
        },
        {
          "internalType": "address",
          "name": "",
          "type": "address"
        }
      ],
      "stateMutability": "view",
      "type": "function"
    },
    {
      "inputs": [
        {
          "internalType": "uint256",
          "name": "_propertyId",
          "type": "uint256"
        }
      ],
      "name": "getTransaction",
      "outputs": [
        {
          "internalType": "address",
          "name": "",
          "type": "address"
        },
        {
          "internalType": "address",
          "name": "",
          "type": "address"
        },
        {
          "internalType": "uint256",
          "name": "",
          "type": "uint256"
        },
        {
          "internalType": "uint256",
          "name": "",
          "type": "uint256"
        }
      ],
      "stateMutability": "view",
      "type": "function"
    },
    {
      "inputs": [
        {
          "internalType": "uint256",
          "name": "_propertyId",
          "type": "uint256"
        },
        {
          "internalType": "uint256",
          "name": "newPrice",
          "type": "uint256"
        }
      ],
      "name": "changePrice",
      "outputs": [],
      "stateMutability": "nonpayable",
      "type": "function"
    },
    {
      "inputs": [
        {
          "internalType": "uint256",
          "name": "_propertyId",
          "type": "uint256"
        }
      ],
      "name": "destroyProperty",
      "outputs": [],
      "stateMutability": "nonpayable",
      "type": "function"
    },
    {
      "inputs": [
        {
          "internalType": "uint256",
          "name": "_propertyId",
          "type": "uint256"
        }
      ],
      "name": "makeValid",
      "outputs": [],
      "stateMutability": "nonpayable",
      "type": "function"
    }
  ],
  "bytecode": "0x60806040523480156200001157600080fd5b50600180546001600160a01b031916331790556040805180820190915260108082526f57656233204d61726b6574506c61636560801b60209092019182526200005d9160009162000064565b5062000147565b82805462000072906200010a565b90600052602060002090601f016020900481019282620000965760008555620000e1565b82601f10620000b157805160ff1916838001178555620000e1565b82800160010185558215620000e1579182015b82811115620000e1578251825591602001919060010190620000c4565b50620000ef929150620000f3565b5090565b5b80821115620000ef5760008155600101620000f4565b600181811c908216806200011f57607f821691505b602082108114156200014157634e487b7160e01b600052602260045260246000fd5b50919050565b610f9d80620001576000396000f3fe6080604052600436106100c25760003560e01c80634eaf9db61161007f578063b2be418011610059578063b2be418014610259578063b3de019c14610279578063d090e47e14610299578063f7b10808146102bd57600080fd5b80634eaf9db6146101f95780635b82ff6a146102195780636a6278421461023957600080fd5b806306fdde03146100c757806312514bba146100f25780631f0c6cfa146101075780632672f5261461012757806332665ffb1461015f57806333ea3dc8146101ae575b600080fd5b3480156100d357600080fd5b506100dc610329565b6040516100e99190610cfc565b60405180910390f35b610105610100366004610d51565b6103b7565b005b34801561011357600080fd5b50610105610122366004610d51565b61067f565b34801561013357600080fd5b50600154610147906001600160a01b031681565b6040516001600160a01b0390911681526020016100e9565b34801561016b57600080fd5b5061017f61017a366004610d51565b6106cd565b604080516001600160a01b039586168152602081019490945283019190915290911660608201526080016100e9565b3480156101ba57600080fd5b506101ce6101c9366004610d51565b61074a565b604080516001600160a01b0395861681529490931660208501529183015260608201526080016100e9565b34801561020557600080fd5b506101ce610214366004610d6a565b610879565b34801561022557600080fd5b50610105610234366004610d51565b6108cb565b34801561024557600080fd5b50610105610254366004610da8565b610913565b34801561026557600080fd5b50610105610274366004610dca565b610ab5565b34801561028557600080fd5b50610105610294366004610d6a565b610bd9565b3480156102a557600080fd5b506102af60035481565b6040519081526020016100e9565b3480156102c957600080fd5b506103186102d8366004610d51565b600260208190526000918252604090912080546001820154928201546003909201546001600160a01b03918216939291811690600160a01b900460ff1685565b6040516100e9959493929190610df6565b6000805461033690610e29565b80601f016020809104026020016040519081016040528092919081815260200182805461036290610e29565b80156103af5780601f10610384576101008083540402835291602001916103af565b820191906000526020600020905b81548152906001019060200180831161039257829003601f168201915b505050505081565b6000818152600260205260409020600301548190600160a01b900460ff1615156001146103ff5760405162461bcd60e51b81526004016103f690610e64565b60405180910390fd5b600082815260026020526040902060038101546001600160a01b0316331461045f5760405162461bcd60e51b8152602060048201526013602482015272213abcb2b9103737ba1030b8383937bb32b21760691b60448201526064016103f6565b80600101543410156104ab5760405162461bcd60e51b815260206004820152601560248201527424b739bab33334b1b4b2b73a103830bcb6b2b73a1760591b60448201526064016103f6565b68022b1c8c1227a000008160010154106104d557600581600101546104d09190610eb1565b6104e6565b600381600101546104e69190610eb1565b60028201819055815460018301546001600160a01b03909116916108fc9161050e9190610ed3565b6040518115909202916000818181858888f19350505050158015610536573d6000803e3d6000fd5b5060015460028201546040516001600160a01b039092169181156108fc0291906000818181858888f19350505050158015610575573d6000803e3d6000fd5b506000838152600460208181526040808420815160808101835286546001600160a01b039081168252338286018181526001808b018054868901908152426060880190815288548085018a55988d5299909b2095519690990290940180546001600160a01b031990811696851696909617815590519381018054861694841694909417909355965160028084019190915594516003928301558754909216861787559354928601549386015491517fc0d5c357a43ef3f8292ef0f290fc4c642e1996fe600d233079ae5396f4b4281795610662959094939092811691600160a01b90910460ff1690610df6565b60405180910390a160030180546001600160a01b03191690555050565b6001546001600160a01b031633146106a95760405162461bcd60e51b81526004016103f690610eea565b6000908152600260205260409020600301805460ff60a01b1916600160a01b179055565b6000818152600260205260408120600301548190819081908590600160a01b900460ff1615156001146107125760405162461bcd60e51b81526004016103f690610e64565b5050506000928352505060026020819052604090912080546001820154928201546003909201546001600160a01b0391821694911690565b600080600080600060046000878152602001908152602001600020805480602002602001604051908101604052809291908181526020016000905b828210156107e7576000848152602090819020604080516080810182526004860290920180546001600160a01b039081168452600180830154909116848601526002820154928401929092526003015460608301529083529092019101610785565b5050505090508060018151811061080057610800610f36565b6020026020010151602001518160018151811061081f5761081f610f36565b6020026020010151600001518260018151811061083e5761083e610f36565b6020026020010151604001518360018151811061085d5761085d610f36565b6020026020010151606001519450945094509450509193509193565b6004602052816000526040600020818154811061089557600080fd5b600091825260209091206004909102018054600182015460028301546003909301546001600160a01b0392831695509116925084565b6001546001600160a01b031633146108f55760405162461bcd60e51b81526004016103f690610eea565b6000908152600260205260409020600301805460ff60a01b19169055565b6001546001600160a01b0316331461093d5760405162461bcd60e51b81526004016103f690610eea565b6040805160a0810182526001600160a01b0383811680835260006020808501828152858701838152606080880185815260016080808b01828152600380548a526002808a528e8b209d518e546001600160a01b0319908116918f16919091178f5598518e86015596518d88015593519b8401805491519c8c166001600160a81b031990921691909117600160a01b9c15158d021790558254885260048088528c89208d519283018e528983528289019a8b52828e018a81524296840196875281548086018355918b52898b2093519190920290920180548816928c1692909217825598518183018054909716908b16179095559651848401559051928101929092558154845291829052918690208054938101549181015492015495517fd192add9cf2fcfb3339d6a89da1ce3f82ba94879708ccbfc36f55485692ed7f096610a95969486169592949281169260ff91041690610df6565b60405180910390a160038054906000610aad83610f4c565b919050555050565b6000828152600260205260409020600301548290600160a01b900460ff161515600114610af45760405162461bcd60e51b81526004016103f690610e64565b600083815260026020526040902080546001600160a01b03163314610b5b5760405162461bcd60e51b815260206004820181905260248201527f4f6e6c7920746865206f776e65722063616e20617070726f76652073616c652e60448201526064016103f6565b6003810180546001600160a01b0319166001600160a01b03858116918217928390558354600185015460028601546040517fb7e7dc8858a8463d2d9c78b61e63134b97094098338cc836679d7472e5351c0096610bcb96949095169492939192600160a01b900460ff1690610df6565b60405180910390a150505050565b6000828152600260205260409020600301548290600160a01b900460ff161515600114610c185760405162461bcd60e51b81526004016103f690610e64565b6000838152600260205260409020546001600160a01b03163314610c7e5760405162461bcd60e51b815260206004820152601c60248201527f796f75206861766520746f206f776e207468652070726f70657274790000000060448201526064016103f6565b6000838152600260208190526040918290206001810185905580549181015460039091015492517fbbfb3b51fe9fbc57eb40642af5bf28e70b1a63c251fbd52b189b2753c267c15993610cef936001600160a01b03908116938893909291821691600160a01b900460ff1690610df6565b60405180910390a1505050565b600060208083528351808285015260005b81811015610d2957858101830151858201604001528201610d0d565b81811115610d3b576000604083870101525b50601f01601f1916929092016040019392505050565b600060208284031215610d6357600080fd5b5035919050565b60008060408385031215610d7d57600080fd5b50508035926020909101359150565b80356001600160a01b0381168114610da357600080fd5b919050565b600060208284031215610dba57600080fd5b610dc382610d8c565b9392505050565b60008060408385031215610ddd57600080fd5b82359150610ded60208401610d8c565b90509250929050565b6001600160a01b039586168152602081019490945260408401929092529092166060820152901515608082015260a00190565b600181811c90821680610e3d57607f821691505b60208210811415610e5e57634e487b7160e01b600052602260045260246000fd5b50919050565b6020808252601b908201527f596f75722070726f7065727479206973206e6f742076616c69642e0000000000604082015260600190565b634e487b7160e01b600052601160045260246000fd5b600082610ece57634e487b7160e01b600052601260045260246000fd5b500490565b600082821015610ee557610ee5610e9b565b500390565b6020808252602c908201527f4f6e6c792074686520676f7665726e6d656e742063616e20706572666f726d2060408201526b3a3434b99030b1ba34b7b71760a11b606082015260800190565b634e487b7160e01b600052603260045260246000fd5b6000600019821415610f6057610f60610e9b565b506001019056fea264697066735822122050bc6779fc27b4d9ec2fb5241f79fcdf15777716969fe1ee8f9a3ce5ecf59db264736f6c63430008090033",
  "immutableReferences": {},
  "source": "// SPDX-License-Identifier: MIT\n\npragma solidity ^0.8.9;\n\ncontract RealEstateNFT {\n    string public name;\n    address payable public government;\n    mapping (uint256 => Property) public properties;\n    uint256 public propertyCounter;\n\n    struct Property {\n        address payable owner;\n        uint256 price;\n        uint256 tax;\n        address approvedBuyer;\n        bool isValid;\n        // Transaction[] transactions;\n    }\n\n    event sell_Property (\n        address payable owner,\n        uint256 price,\n        uint256 tax,\n        address approvedBuyer,\n        bool isValid\n    );\n\n    event approve_Property (\n        address payable owner,\n        uint256 price,\n        uint256 tax,\n        address approvedBuyer,\n        bool isValid\n    );\n\n    event change_Price (\n        address payable owner,\n        uint256 price,\n        uint256 tax,\n        address approvedBuyer,\n        bool isValid\n    );\n\n    event buy_Property (\n        address payable owner,\n        uint256 price,\n        uint256 tax,\n        address approvedBuyer,\n        bool isValid\n    );\n\n    mapping(uint256 => Transaction[]) public transactions;\n\n    struct Transaction {\n        address previousOwner;\n        address newOwner;\n        uint256 price;\n        uint256 timestamp;\n    }\n\n    // event sell_Transaction (\n    //     address previousOwner,\n    //     address newOwner,\n    //     uint256 price,\n    //     uint256 timestamp\n    // );\n\n    // event buy_Transaction (\n    //     address previousOwner,\n    //     address newOwner,\n    //     uint256 price,\n    //     uint256 timestamp\n    // );\n\n    constructor(){\n        government = payable(msg.sender);\n        name = \"Web3 MarketPlace\";\n    }\n\n    function mint(address seller) public onlyGovernment{\n        properties[propertyCounter] = Property({\n            owner: payable(seller),\n            price: 0,\n            tax: 0,\n            approvedBuyer: address(0),\n            isValid: true\n            // transactions: new Transaction[]\n            \n        });\n        transactions[propertyCounter].push(Transaction({\n                previousOwner: address(0),\n                newOwner: seller,\n                price: 0,\n                timestamp: block.timestamp\n            }));\n        \n        emit sell_Property(properties[propertyCounter].owner, properties[propertyCounter].price, properties[propertyCounter].tax, properties[propertyCounter].approvedBuyer, properties[propertyCounter].isValid);\n        // emit mint_Transaction(transactions[propertyCounter][0].previousOwner, transactions[propertyCounter][1].newOwner, transactions[propertyCounter][2].price, transactions[propertyCounter][3].timestamp);\n        propertyCounter ++;\n    }\n\n    function approveSale(uint256 _propertyId, address _buyer) public onlyValid(_propertyId){\n        Property storage property = properties[_propertyId];\n        require(property.owner == msg.sender, \"Only the owner can approve sale.\");\n        property.approvedBuyer = _buyer;\n        emit approve_Property(property.owner, property.price, property.tax, property.approvedBuyer, property.isValid);\n    }\n\n    function transfer(uint256 _propertyId) public payable onlyValid(_propertyId){\n        Property storage property = properties[_propertyId];\n        require(property.approvedBuyer == msg.sender, \"Buyer not approved.\");\n        require(msg.value >= property.price, \"Insufficient payment.\");\n\n        property.tax=property.price<40000000000000000000? property.price/3: property.price/5;\n        property.owner.transfer(property.price - property.tax);\n        government.transfer(property.tax);\n        transactions[_propertyId].push(Transaction({\n            previousOwner: property.owner,\n            newOwner: msg.sender,\n            price: property.price,\n            timestamp: block.timestamp\n        }));\n        property.owner = payable(msg.sender);\n\n        emit buy_Property(property.owner, property.price, property.tax, property.approvedBuyer, property.isValid);\n        // emit sell_Transaction(transactions[_propertyId][0].previousOwner, transactions[_propertyId][1].newOwner, transactions[_propertyId][2].price, transactions[_propertyId][3].timestamp);\n\n        property.approvedBuyer = address(0);\n    }\n\n    function getProperty(uint256 _propertyId) public view onlyValid(_propertyId) returns(address, uint256, uint256, address) {\n        Property storage property = properties[_propertyId];\n        return (property.owner, property.price, property.tax, property.approvedBuyer);\n    }\n\n    function getTransaction(uint256 _propertyId) public view returns (address, address, uint256, uint256) {\n        Transaction[] memory transaction = transactions[_propertyId];\n        return (transaction[1].newOwner, transaction[1].previousOwner,transaction[1].price,transaction[1].timestamp);\n    }\n\n    function changePrice(uint256 _propertyId, uint256 newPrice) public onlyValid(_propertyId){\n        require(msg.sender == properties[_propertyId].owner, \"you have to own the property\");\n        properties[_propertyId].price = newPrice;\n        emit change_Price(properties[_propertyId].owner, properties[_propertyId].price, properties[_propertyId].tax, properties[_propertyId].approvedBuyer, properties[_propertyId].isValid);\n        \n    }\n\n    function destroyProperty(uint256 _propertyId) public onlyGovernment{\n        properties[_propertyId].isValid = false;\n    }\n\n    function makeValid(uint256 _propertyId) public onlyGovernment{\n        properties[_propertyId].isValid = true;\n    }\n\n    modifier onlyGovernment() {\n        require(msg.sender == government, \"Only the government can perform this action.\");\n        _;\n    }\n\n    modifier onlyValid(uint256 _propertyId){\n        require(properties[_propertyId].isValid== true, \"Your property is not valid.\");\n        _;\n    }\n\n\n}\n",
  "sourcePath": "C:\\Users\\srira\\OneDrive\\Desktop\\sems\\sem8\\Project\\FY-Project\\contracts\\RealEstateNFT.sol",
  "compiler": {
    "name": "solc",
    "version": "0.8.9+commit.e5eed63a.Emscripten.clang"
  },
  "schemaVersion": "3.4.13",
  "updatedAt": "2023-04-14T10:02:34.806Z",
  "devdoc": {
    "kind": "dev",
    "methods": {},
    "version": 1
  },
  "userdoc": {
    "kind": "user",
    "methods": {},
    "version": 1
  }
}