{
  "contractName": "RealEstateNFT",
  "abi": [
    {
      "inputs": [],
      "stateMutability": "nonpayable",
      "type": "constructor"
    },
    {
      "anonymous": false,
      "inputs": [
        {
          "indexed": false,
          "internalType": "address payable",
          "name": "owner",
          "type": "address"
        },
        {
          "indexed": false,
          "internalType": "uint256",
          "name": "price",
          "type": "uint256"
        },
        {
          "indexed": false,
          "internalType": "uint256",
          "name": "tax",
          "type": "uint256"
        },
        {
          "indexed": false,
          "internalType": "address",
          "name": "approvedBuyer",
          "type": "address"
        },
        {
          "indexed": false,
          "internalType": "bool",
          "name": "isValid",
          "type": "bool"
        },
        {
          "indexed": false,
          "internalType": "string",
          "name": "id",
          "type": "string"
        }
      ],
      "name": "approve_Property",
      "type": "event"
    },
    {
      "anonymous": false,
      "inputs": [
        {
          "indexed": false,
          "internalType": "address payable",
          "name": "owner",
          "type": "address"
        },
        {
          "indexed": false,
          "internalType": "uint256",
          "name": "price",
          "type": "uint256"
        },
        {
          "indexed": false,
          "internalType": "uint256",
          "name": "tax",
          "type": "uint256"
        },
        {
          "indexed": false,
          "internalType": "address",
          "name": "approvedBuyer",
          "type": "address"
        },
        {
          "indexed": false,
          "internalType": "bool",
          "name": "isValid",
          "type": "bool"
        },
        {
          "indexed": false,
          "internalType": "string",
          "name": "id",
          "type": "string"
        }
      ],
      "name": "buy_Property",
      "type": "event"
    },
    {
      "anonymous": false,
      "inputs": [
        {
          "indexed": false,
          "internalType": "address payable",
          "name": "owner",
          "type": "address"
        },
        {
          "indexed": false,
          "internalType": "uint256",
          "name": "price",
          "type": "uint256"
        },
        {
          "indexed": false,
          "internalType": "uint256",
          "name": "tax",
          "type": "uint256"
        },
        {
          "indexed": false,
          "internalType": "address",
          "name": "approvedBuyer",
          "type": "address"
        },
        {
          "indexed": false,
          "internalType": "bool",
          "name": "isValid",
          "type": "bool"
        },
        {
          "indexed": false,
          "internalType": "string",
          "name": "id",
          "type": "string"
        }
      ],
      "name": "change_Price",
      "type": "event"
    },
    {
      "anonymous": false,
      "inputs": [
        {
          "indexed": false,
          "internalType": "address payable",
          "name": "owner",
          "type": "address"
        },
        {
          "indexed": false,
          "internalType": "uint256",
          "name": "price",
          "type": "uint256"
        },
        {
          "indexed": false,
          "internalType": "uint256",
          "name": "tax",
          "type": "uint256"
        },
        {
          "indexed": false,
          "internalType": "address",
          "name": "approvedBuyer",
          "type": "address"
        },
        {
          "indexed": false,
          "internalType": "bool",
          "name": "isValid",
          "type": "bool"
        },
        {
          "indexed": false,
          "internalType": "string",
          "name": "id",
          "type": "string"
        }
      ],
      "name": "sell_Property",
      "type": "event"
    },
    {
      "inputs": [],
      "name": "government",
      "outputs": [
        {
          "internalType": "address payable",
          "name": "",
          "type": "address"
        }
      ],
      "stateMutability": "view",
      "type": "function",
      "constant": true
    },
    {
      "inputs": [],
      "name": "name",
      "outputs": [
        {
          "internalType": "string",
          "name": "",
          "type": "string"
        }
      ],
      "stateMutability": "view",
      "type": "function",
      "constant": true
    },
    {
      "inputs": [
        {
          "internalType": "string",
          "name": "",
          "type": "string"
        }
      ],
      "name": "properties",
      "outputs": [
        {
          "internalType": "address payable",
          "name": "owner",
          "type": "address"
        },
        {
          "internalType": "uint256",
          "name": "price",
          "type": "uint256"
        },
        {
          "internalType": "uint256",
          "name": "tax",
          "type": "uint256"
        },
        {
          "internalType": "address",
          "name": "approvedBuyer",
          "type": "address"
        },
        {
          "internalType": "bool",
          "name": "isValid",
          "type": "bool"
        },
        {
          "internalType": "string",
          "name": "id",
          "type": "string"
        }
      ],
      "stateMutability": "view",
      "type": "function",
      "constant": true
    },
    {
      "inputs": [],
      "name": "propertyCounter",
      "outputs": [
        {
          "internalType": "uint256",
          "name": "",
          "type": "uint256"
        }
      ],
      "stateMutability": "view",
      "type": "function",
      "constant": true
    },
    {
      "inputs": [
        {
          "internalType": "uint256",
          "name": "",
          "type": "uint256"
        }
      ],
      "name": "propertyIDs",
      "outputs": [
        {
          "internalType": "string",
          "name": "",
          "type": "string"
        }
      ],
      "stateMutability": "view",
      "type": "function",
      "constant": true
    },
    {
      "inputs": [
        {
          "internalType": "string",
          "name": "",
          "type": "string"
        },
        {
          "internalType": "uint256",
          "name": "",
          "type": "uint256"
        }
      ],
      "name": "transactions",
      "outputs": [
        {
          "internalType": "address",
          "name": "previousOwner",
          "type": "address"
        },
        {
          "internalType": "address",
          "name": "newOwner",
          "type": "address"
        },
        {
          "internalType": "uint256",
          "name": "price",
          "type": "uint256"
        },
        {
          "internalType": "uint256",
          "name": "timestamp",
          "type": "uint256"
        },
        {
          "internalType": "string",
          "name": "id",
          "type": "string"
        }
      ],
      "stateMutability": "view",
      "type": "function",
      "constant": true
    },
    {
      "inputs": [
        {
          "internalType": "address",
          "name": "_seller",
          "type": "address"
        },
        {
          "internalType": "string",
          "name": "_propertyId",
          "type": "string"
        }
      ],
      "name": "mint",
      "outputs": [],
      "stateMutability": "nonpayable",
      "type": "function"
    },
    {
      "inputs": [
        {
          "internalType": "string",
          "name": "_propertyId",
          "type": "string"
        },
        {
          "internalType": "address",
          "name": "_buyer",
          "type": "address"
        }
      ],
      "name": "approveSale",
      "outputs": [],
      "stateMutability": "nonpayable",
      "type": "function"
    },
    {
      "inputs": [
        {
          "internalType": "string",
          "name": "_propertyId",
          "type": "string"
        }
      ],
      "name": "transfer",
      "outputs": [],
      "stateMutability": "payable",
      "type": "function",
      "payable": true
    },
    {
      "inputs": [
        {
          "internalType": "string",
          "name": "_propertyId",
          "type": "string"
        }
      ],
      "name": "getProperty",
      "outputs": [
        {
          "components": [
            {
              "internalType": "address payable",
              "name": "owner",
              "type": "address"
            },
            {
              "internalType": "uint256",
              "name": "price",
              "type": "uint256"
            },
            {
              "internalType": "uint256",
              "name": "tax",
              "type": "uint256"
            },
            {
              "internalType": "address",
              "name": "approvedBuyer",
              "type": "address"
            },
            {
              "internalType": "bool",
              "name": "isValid",
              "type": "bool"
            },
            {
              "internalType": "string",
              "name": "id",
              "type": "string"
            }
          ],
          "internalType": "struct RealEstateNFT.Property",
          "name": "",
          "type": "tuple"
        }
      ],
      "stateMutability": "view",
      "type": "function",
      "constant": true
    },
    {
      "inputs": [
        {
          "internalType": "string",
          "name": "_propertyId",
          "type": "string"
        }
      ],
      "name": "getTransaction",
      "outputs": [
        {
          "components": [
            {
              "internalType": "address",
              "name": "previousOwner",
              "type": "address"
            },
            {
              "internalType": "address",
              "name": "newOwner",
              "type": "address"
            },
            {
              "internalType": "uint256",
              "name": "price",
              "type": "uint256"
            },
            {
              "internalType": "uint256",
              "name": "timestamp",
              "type": "uint256"
            },
            {
              "internalType": "string",
              "name": "id",
              "type": "string"
            }
          ],
          "internalType": "struct RealEstateNFT.Transaction[]",
          "name": "",
          "type": "tuple[]"
        }
      ],
      "stateMutability": "view",
      "type": "function",
      "constant": true
    },
    {
      "inputs": [
        {
          "internalType": "string",
          "name": "_propertyId",
          "type": "string"
        },
        {
          "internalType": "uint256",
          "name": "newPrice",
          "type": "uint256"
        }
      ],
      "name": "changePrice",
      "outputs": [],
      "stateMutability": "nonpayable",
      "type": "function"
    },
    {
      "inputs": [
        {
          "internalType": "string",
          "name": "_propertyId",
          "type": "string"
        }
      ],
      "name": "destroyProperty",
      "outputs": [],
      "stateMutability": "nonpayable",
      "type": "function"
    },
    {
      "inputs": [
        {
          "internalType": "string",
          "name": "_propertyId",
          "type": "string"
        }
      ],
      "name": "makeValid",
      "outputs": [],
      "stateMutability": "nonpayable",
      "type": "function"
    },
    {
      "inputs": [],
      "name": "showAllProperties",
      "outputs": [
        {
          "components": [
            {
              "internalType": "address payable",
              "name": "owner",
              "type": "address"
            },
            {
              "internalType": "uint256",
              "name": "price",
              "type": "uint256"
            },
            {
              "internalType": "uint256",
              "name": "tax",
              "type": "uint256"
            },
            {
              "internalType": "address",
              "name": "approvedBuyer",
              "type": "address"
            },
            {
              "internalType": "bool",
              "name": "isValid",
              "type": "bool"
            },
            {
              "internalType": "string",
              "name": "id",
              "type": "string"
            }
          ],
          "internalType": "struct RealEstateNFT.Property[]",
          "name": "",
          "type": "tuple[]"
        }
      ],
      "stateMutability": "view",
      "type": "function",
      "constant": true
    }
  ],
  "bytecode": "0x60806040523480156200001157600080fd5b50600180546001600160a01b031916331790556040805180820190915260108082526f57656233204d61726b6574506c61636560801b60209092019182526200005d9160009162000064565b5062000147565b82805462000072906200010a565b90600052602060002090601f016020900481019282620000965760008555620000e1565b82601f10620000b157805160ff1916838001178555620000e1565b82800160010185558215620000e1579182015b82811115620000e1578251825591602001919060010190620000c4565b50620000ef929150620000f3565b5090565b5b80821115620000ef5760008155600101620000f4565b600181811c908216806200011f57607f821691505b602082108114156200014157634e487b7160e01b600052602260045260246000fd5b50919050565b611d4280620001576000396000f3fe6080604052600436106100e85760003560e01c80639be8f2a61161008a578063c1ae85fe11610059578063c1ae85fe146102a2578063d090e47e146102c2578063d0def521146102e6578063eb8a6a6a1461030657600080fd5b80639be8f2a614610203578063a0258d0b14610235578063ab331a3414610248578063ac2ccd071461027557600080fd5b80632672f526116100c65780632672f5261461015a5780633d82e7dd146101925780634935efe7146101b2578063705c304f146101e357600080fd5b806306fdde03146100ed5780631b5b3176146101185780631fa195961461013a575b600080fd5b3480156100f957600080fd5b50610102610328565b60405161010f91906116ce565b60405180910390f35b34801561012457600080fd5b506101386101333660046117a7565b6103b6565b005b34801561014657600080fd5b506101386101553660046117f5565b61056e565b34801561016657600080fd5b5060015461017a906001600160a01b031681565b6040516001600160a01b03909116815260200161010f565b34801561019e57600080fd5b506101386101ad36600461183a565b610784565b3480156101be57600080fd5b506101d26101cd3660046117f5565b6107ef565b60405161010f959493929190611877565b3480156101ef57600080fd5b506101386101fe36600461183a565b6108e6565b34801561020f57600080fd5b5061022361021e36600461183a565b610922565b60405161010f969594939291906118bc565b61013861024336600461183a565b610a01565b34801561025457600080fd5b5061026861026336600461183a565b610d2a565b60405161010f919061195f565b34801561028157600080fd5b5061029561029036600461183a565b610e96565b60405161010f9190611972565b3480156102ae57600080fd5b506101026102bd366004611a13565b610fe0565b3480156102ce57600080fd5b506102d860045481565b60405190815260200161010f565b3480156102f257600080fd5b50610138610301366004611a2c565b61100b565b34801561031257600080fd5b5061031b611346565b60405161010f9190611a7a565b6000805461033590611adc565b80601f016020809104026020016040519081016040528092919081815260200182805461036190611adc565b80156103ae5780601f10610383576101008083540402835291602001916103ae565b820191906000526020600020905b81548152906001019060200180831161039157829003601f168201915b505050505081565b816002816040516103c79190611b11565b90815260405160209181900391909101902060030154600160a01b900460ff1615156001146104115760405162461bcd60e51b815260040161040890611b2d565b60405180910390fd5b60006002846040516104239190611b11565b90815260405190819003602001902080549091506001600160a01b0316331461048e5760405162461bcd60e51b815260206004820181905260248201527f4f6e6c7920746865206f776e65722063616e20617070726f76652073616c652e6044820152606401610408565b80546001600160a01b03848116911614156104eb5760405162461bcd60e51b815260206004820181905260248201527f73656c6c65722063616e6e6f742073656c6c20746f207468656d73656c7665736044820152606401610408565b6003810180546001600160a01b0319166001600160a01b03858116918217928390558354600185015460028601546040517f3e13046edccab8a92e4d6d237f8ab0f100d55bed163a2d9af108dde68819f4919661056096949095169492939192600160a01b900460ff16906004890190611b64565b60405180910390a150505050565b8160028160405161057f9190611b11565b90815260405160209181900391909101902060030154600160a01b900460ff1615156001146105c05760405162461bcd60e51b815260040161040890611b2d565b6002836040516105d09190611b11565b90815260405190819003602001902054336001600160a01b03909116146106395760405162461bcd60e51b815260206004820152601c60248201527f796f75206861766520746f206f776e207468652070726f7065727479000000006044820152606401610408565b8160028460405161064a9190611b11565b9081526020016040518091039020600101819055507f12ea5d3fd5e6d574168638800e5bc93e36fe84d488ebbeac173168754d0244b86002846040516106909190611b11565b908152604051908190036020018120546001600160a01b0316906002906106b8908790611b11565b9081526020016040518091039020600101546002866040516106da9190611b11565b9081526020016040518091039020600201546002876040516106fc9190611b11565b908152604051908190036020018120600301546001600160a01b031690600290610727908a90611b11565b9081526040519081900360200181206003015460ff600160a01b9091041690600290610754908b90611b11565b908152602001604051809103902060040160405161077796959493929190611b64565b60405180910390a1505050565b6001546001600160a01b031633146107ae5760405162461bcd60e51b815260040161040890611c40565b60006002826040516107c09190611b11565b9081526040519081900360200190206003018054911515600160a01b0260ff60a01b1990921691909117905550565b8151602081840181018051600582529282019185019190912091905280548290811061081a57600080fd5b6000918252602090912060059091020180546001820154600283015460038401546004850180546001600160a01b03958616985093909416955090939092909161086390611adc565b80601f016020809104026020016040519081016040528092919081815260200182805461088f90611adc565b80156108dc5780601f106108b1576101008083540402835291602001916108dc565b820191906000526020600020905b8154815290600101906020018083116108bf57829003601f168201915b5050505050905085565b6001546001600160a01b031633146109105760405162461bcd60e51b815260040161040890611c40565b60016002826040516107c09190611b11565b805160208183018101805160028083529383019290940191909120929052815460018301549183015460038401546004850180546001600160a01b03948516969394831693600160a01b90930460ff1692919061097e90611adc565b80601f01602080910402602001604051908101604052809291908181526020018280546109aa90611adc565b80156109f75780601f106109cc576101008083540402835291602001916109f7565b820191906000526020600020905b8154815290600101906020018083116109da57829003601f168201915b5050505050905086565b80600281604051610a129190611b11565b90815260405160209181900391909101902060030154600160a01b900460ff161515600114610a535760405162461bcd60e51b815260040161040890611b2d565b6000600283604051610a659190611b11565b90815260405190819003602001902060038101549091506001600160a01b03163314610ac95760405162461bcd60e51b8152602060048201526013602482015272213abcb2b9103737ba1030b8383937bb32b21760691b6044820152606401610408565b8060010154341015610b155760405162461bcd60e51b815260206004820152601560248201527424b739bab33334b1b4b2b73a103830bcb6b2b73a1760591b6044820152606401610408565b68022b1c8c1227a00000816001015410610b3f5760058160010154610b3a9190611ca2565b610b50565b60038160010154610b509190611ca2565b60028201819055815460018301546001600160a01b03909116916108fc91610b789190611cc4565b6040518115909202916000818181858888f19350505050158015610ba0573d6000803e3d6000fd5b5060015460028201546040516001600160a01b039092169181156108fc0291906000818181858888f19350505050158015610bdf573d6000803e3d6000fd5b50600583604051610bf09190611b11565b90815260408051918290036020908101832060a08401835284546001600160a01b039081168552338584019081526001808801549587019586524260608801908152608088018b815285548084018755600096875295879020895160059097020180549686166001600160a01b03199788161781559351928401805493909516929095169190911790925593516002850155516003840155518051610c9b926004850192019061158f565b50508154336001600160a01b0319909116811783556001830154600284015460038501546040517f9b04f059a2655cbf32357282d75fd3ede8a676484dad7cb2465078ad93ed3def9550610d0d949392916001600160a01b03811691600160a01b90910460ff16906004890190611b64565b60405180910390a160030180546001600160a01b03191690555050565b610d32611613565b81600281604051610d439190611b11565b90815260405160209181900391909101902060030154600160a01b900460ff161515600114610d845760405162461bcd60e51b815260040161040890611b2d565b6000600284604051610d969190611b11565b908152604080516020928190038301812060c08201835280546001600160a01b03908116835260018201549483019490945260028101549282019290925260038201549283166060820152600160a01b90920460ff161515608083015260048101805460a084019190610e0890611adc565b80601f0160208091040260200160405190810160405280929190818152602001828054610e3490611adc565b8015610e815780601f10610e5657610100808354040283529160200191610e81565b820191906000526020600020905b815481529060010190602001808311610e6457829003601f168201915b50505091909252509194505050505b50919050565b60606000600583604051610eaa9190611b11565b9081526020016040518091039020805480602002602001604051908101604052809291908181526020016000905b82821015610fd45760008481526020908190206040805160a0810182526005860290920180546001600160a01b0390811684526001820154169383019390935260028301549082015260038201546060820152600482018054919291608084019190610f4390611adc565b80601f0160208091040260200160405190810160405280929190818152602001828054610f6f90611adc565b8015610fbc5780601f10610f9157610100808354040283529160200191610fbc565b820191906000526020600020905b815481529060010190602001808311610f9f57829003601f168201915b50505050508152505081526020019060010190610ed8565b50929695505050505050565b60038181548110610ff057600080fd5b90600052602060002001600091509050805461033590611adc565b6001546001600160a01b031633146110355760405162461bcd60e51b815260040161040890611c40565b6040805160c0810182526001600160a01b038416815260006020820181905281830181905260608201526001608082015260a08101839052905160029061107d908490611b11565b9081526040805160209281900383019020835181546001600160a01b0319166001600160a01b0391821617825584840151600183015591840151600282015560608401516003820180546080870151929094166001600160a81b031990941693909317600160a01b911515919091021790915560a08301518051919261110b9260048501929091019061158f565b5090505060058160405161111f9190611b11565b90815260408051918290036020908101832060a08401835260008085526001600160a01b0387811686850190815294860182815242606088019081526080880189815285546001818101885596865294879020895160059096020180549585166001600160a01b031996871617815597519588018054969094169590941694909417909155516002850155905160038401555180516111c4926004850192019061158f565b505060038054600181018255600091909152825161120c92507fc2575a0e9e593c00f959f8c92f12db2869c3395a3b0502d05e2516446f71f85b90910190602084019061158f565b507fc576d80b34b0a616a83a75299850399c64ff38fb6a1ac267126b36ebdba9d26b60028260405161123e9190611b11565b908152604051908190036020018120546001600160a01b031690600290611266908590611b11565b9081526020016040518091039020600101546002846040516112889190611b11565b9081526020016040518091039020600201546002856040516112aa9190611b11565b908152604051908190036020018120600301546001600160a01b0316906002906112d5908890611b11565b9081526040519081900360200181206003015460ff600160a01b9091041690600290611302908990611b11565b908152602001604051809103902060040160405161132596959493929190611b64565b60405180910390a16004805490600061133d83611cdb565b91905055505050565b60035460609060009067ffffffffffffffff811115611367576113676116e8565b6040519080825280602002602001820160405280156113a057816020015b61138d611613565b8152602001906001900390816113855790505b50905060005b600354811015610e90576000600382815481106113c5576113c5611cf6565b9060005260206000200180546113da90611adc565b80601f016020809104026020016040519081016040528092919081815260200182805461140690611adc565b80156114535780601f1061142857610100808354040283529160200191611453565b820191906000526020600020905b81548152906001019060200180831161143657829003601f168201915b5050505050905060028160405161146a9190611b11565b908152604080516020928190038301812060c08201835280546001600160a01b03908116835260018201549483019490945260028101549282019290925260038201549283166060820152600160a01b90920460ff161515608083015260048101805460a0840191906114dc90611adc565b80601f016020809104026020016040519081016040528092919081815260200182805461150890611adc565b80156115555780601f1061152a57610100808354040283529160200191611555565b820191906000526020600020905b81548152906001019060200180831161153857829003601f168201915b50505050508152505083838151811061157057611570611cf6565b602002602001018190525050808061158790611cdb565b9150506113a6565b82805461159b90611adc565b90600052602060002090601f0160209004810192826115bd5760008555611603565b82601f106115d657805160ff1916838001178555611603565b82800160010185558215611603579182015b828111156116035782518255916020019190600101906115e8565b5061160f92915061165d565b5090565b6040518060c0016040528060006001600160a01b03168152602001600081526020016000815260200160006001600160a01b03168152602001600015158152602001606081525090565b5b8082111561160f576000815560010161165e565b60005b8381101561168d578181015183820152602001611675565b8381111561169c576000848401525b50505050565b600081518084526116ba816020860160208601611672565b601f01601f19169290920160200192915050565b6020815260006116e160208301846116a2565b9392505050565b634e487b7160e01b600052604160045260246000fd5b600082601f83011261170f57600080fd5b813567ffffffffffffffff8082111561172a5761172a6116e8565b604051601f8301601f19908116603f01168101908282118183101715611752576117526116e8565b8160405283815286602085880101111561176b57600080fd5b836020870160208301376000602085830101528094505050505092915050565b80356001600160a01b03811681146117a257600080fd5b919050565b600080604083850312156117ba57600080fd5b823567ffffffffffffffff8111156117d157600080fd5b6117dd858286016116fe565b9250506117ec6020840161178b565b90509250929050565b6000806040838503121561180857600080fd5b823567ffffffffffffffff81111561181f57600080fd5b61182b858286016116fe565b95602094909401359450505050565b60006020828403121561184c57600080fd5b813567ffffffffffffffff81111561186357600080fd5b61186f848285016116fe565b949350505050565b6001600160a01b03868116825285166020820152604081018490526060810183905260a0608082018190526000906118b1908301846116a2565b979650505050505050565b6001600160a01b038781168252602082018790526040820186905284166060820152821515608082015260c060a082018190526000906118fe908301846116a2565b98975050505050505050565b600060018060a01b0380835116845260208301516020850152604083015160408501528060608401511660608501525060808201511515608084015260a082015160c060a085015261186f60c08501826116a2565b6020815260006116e1602083018461190a565b60006020808301818452808551808352604092508286019150828160051b87010184880160005b83811015611a0557888303603f19018552815180516001600160a01b03908116855288820151168885015286810151878501526060808201519085015260809081015160a0918501829052906119f1818601836116a2565b968901969450505090860190600101611999565b509098975050505050505050565b600060208284031215611a2557600080fd5b5035919050565b60008060408385031215611a3f57600080fd5b611a488361178b565b9150602083013567ffffffffffffffff811115611a6457600080fd5b611a70858286016116fe565b9150509250929050565b6000602080830181845280855180835260408601915060408160051b870101925083870160005b82811015611acf57603f19888603018452611abd85835161190a565b94509285019290850190600101611aa1565b5092979650505050505050565b600181811c90821680611af057607f821691505b60208210811415610e9057634e487b7160e01b600052602260045260246000fd5b60008251611b23818460208701611672565b9190910192915050565b6020808252601b908201527f596f75722070726f7065727479206973206e6f742076616c69642e0000000000604082015260600190565b6001600160a01b0387811682526020808301889052604083018790529085166060830152831515608083015260c060a083015282546000918291600181811c9082811680611bb357607f831692505b848310811415611bd157634e487b7160e01b86526022600452602486fd5b60c0880183905260e08801818015611bf05760018114611c0157611c2c565b60ff19861682528682019750611c2c565b60008b81526020902060005b86811015611c2657815484820152908501908801611c0d565b83019850505b50959e9d5050505050505050505050505050565b6020808252602c908201527f4f6e6c792074686520676f7665726e6d656e742063616e20706572666f726d2060408201526b3a3434b99030b1ba34b7b71760a11b606082015260800190565b634e487b7160e01b600052601160045260246000fd5b600082611cbf57634e487b7160e01b600052601260045260246000fd5b500490565b600082821015611cd657611cd6611c8c565b500390565b6000600019821415611cef57611cef611c8c565b5060010190565b634e487b7160e01b600052603260045260246000fdfea2646970667358221220febb371287a3bbbff7e8b37e20d21f657f8e9aeb929036e67fb1a62c8aaedf2864736f6c63430008090033",
  "immutableReferences": {},
  "source": "// SPDX-License-Identifier: MIT\r\n\r\npragma solidity ^0.8.9;\r\n\r\ncontract RealEstateNFT {\r\n    string public name;\r\n    address payable public government;\r\n    mapping (string => Property) public properties;\r\n\r\n    string[] public propertyIDs;\r\n\r\n    // mapping (address => Property[]) public ownerOf;\r\n    //onwerOf(X983nd) => [prop1, prop2];\r\n    \r\n    uint256 public propertyCounter;\r\n\r\n    struct Property {\r\n        address payable owner;\r\n        uint256 price;\r\n        uint256 tax;\r\n        address approvedBuyer;\r\n        bool isValid;\r\n        string id;\r\n        // Transaction[] transactions;\r\n    }\r\n\r\n    event sell_Property (\r\n        address payable owner,\r\n        uint256 price,\r\n        uint256 tax,\r\n        address approvedBuyer,\r\n        bool isValid,\r\n        string id\r\n    );\r\n\r\n    event approve_Property (\r\n        address payable owner,\r\n        uint256 price,\r\n        uint256 tax,\r\n        address approvedBuyer,\r\n        bool isValid,\r\n        string id\r\n    );\r\n\r\n    event change_Price (\r\n        address payable owner,\r\n        uint256 price,\r\n        uint256 tax,\r\n        address approvedBuyer,\r\n        bool isValid,\r\n        string id\r\n\r\n\r\n    );\r\n\r\n    event buy_Property (\r\n        address payable owner,\r\n        uint256 price,\r\n        uint256 tax,\r\n        address approvedBuyer,\r\n        bool isValid,\r\n        string id\r\n    );\r\n\r\n    mapping(string => Transaction[]) public transactions;\r\n\r\n    struct Transaction {\r\n        address previousOwner;\r\n        address newOwner;\r\n        uint256 price;\r\n        uint256 timestamp;\r\n        string id;\r\n    }\r\n\r\n    // event sell_Transaction (\r\n    //     address previousOwner,\r\n    //     address newOwner,\r\n    //     uint256 price,\r\n    //     uint256 timestamp\r\n    // );\r\n\r\n    // event buy_Transaction (\r\n    //     address previousOwner,\r\n    //     address newOwner,\r\n    //     uint256 price,\r\n    //     uint256 timestamp\r\n    // );\r\n\r\n    constructor(){\r\n        government = payable(msg.sender);\r\n        name = \"Web3 MarketPlace\";\r\n    }\r\n\r\n    function mint(address _seller, string memory _propertyId) public onlyGovernment{\r\n        properties[_propertyId] = Property({\r\n            owner: payable(_seller),\r\n            price: 0,\r\n            tax: 0,\r\n            approvedBuyer: address(0),\r\n            isValid: true,\r\n            id:_propertyId\r\n            // transactions: new Transaction[]\r\n            \r\n        });\r\n        transactions[_propertyId].push(Transaction({\r\n                previousOwner: address(0),\r\n                newOwner: _seller,\r\n                price: 0,\r\n                timestamp: block.timestamp,\r\n                id: _propertyId\r\n            }));\r\n\r\n        propertyIDs.push(_propertyId);\r\n        \r\n        emit sell_Property(properties[_propertyId].owner, properties[_propertyId].price, properties[_propertyId].tax, properties[_propertyId].approvedBuyer, properties[_propertyId].isValid, properties[_propertyId].id);\r\n        // emit mint_Transaction(transactions[propertyCounter][0].previousOwner, transactions[propertyCounter][1].newOwner, transactions[propertyCounter][2].price, transactions[propertyCounter][3].timestamp);\r\n        propertyCounter ++;\r\n    }\r\n\r\n    function approveSale(string memory _propertyId, address _buyer) public onlyValid(_propertyId){\r\n        Property storage property = properties[_propertyId];\r\n        require(property.owner == msg.sender, \"Only the owner can approve sale.\");\r\n        require(property.owner != _buyer, \"seller cannot sell to themselves\");\r\n        property.approvedBuyer = _buyer;\r\n        emit approve_Property(property.owner, property.price, property.tax, property.approvedBuyer, property.isValid, property.id);\r\n    }\r\n\r\n    function transfer(string memory _propertyId) public payable onlyValid(_propertyId){\r\n        Property storage property = properties[_propertyId];\r\n        require(property.approvedBuyer == msg.sender, \"Buyer not approved.\");\r\n        require(msg.value >= property.price, \"Insufficient payment.\");\r\n\r\n        property.tax=property.price<40000000000000000000? property.price/3: property.price/5;\r\n        property.owner.transfer(property.price - property.tax);\r\n        government.transfer(property.tax);\r\n        transactions[_propertyId].push(Transaction({\r\n            previousOwner: property.owner,\r\n            newOwner: msg.sender,\r\n            price: property.price,\r\n            timestamp: block.timestamp,\r\n            id: _propertyId\r\n        }));\r\n        property.owner = payable(msg.sender);\r\n\r\n        emit buy_Property(property.owner, property.price, property.tax, property.approvedBuyer, property.isValid, property.id);\r\n        // emit sell_Transaction(transactions[_propertyId][0].previousOwner, transactions[_propertyId][1].newOwner, transactions[_propertyId][2].price, transactions[_propertyId][3].timestamp);\r\n\r\n        property.approvedBuyer = address(0);\r\n    }\r\n\r\n    function getProperty(string memory _propertyId) public view onlyValid(_propertyId) returns( Property memory) {\r\n        Property memory property = properties[_propertyId];\r\n        return property;\r\n    }\r\n\r\n    function getTransaction(string memory _propertyId) public view returns (Transaction[] memory) {\r\n        Transaction[] memory transaction = transactions[_propertyId];\r\n        return transaction;\r\n    }\r\n\r\n    function changePrice(string memory _propertyId, uint256 newPrice) public onlyValid(_propertyId){\r\n        require(msg.sender == properties[_propertyId].owner, \"you have to own the property\");\r\n        properties[_propertyId].price = newPrice;\r\n        emit change_Price(properties[_propertyId].owner, properties[_propertyId].price, properties[_propertyId].tax, properties[_propertyId].approvedBuyer, properties[_propertyId].isValid, properties[_propertyId].id);\r\n        \r\n    }\r\n\r\n    function destroyProperty(string memory _propertyId) public onlyGovernment{\r\n        properties[_propertyId].isValid = false;\r\n    }\r\n\r\n    function makeValid(string memory _propertyId) public onlyGovernment{\r\n        properties[_propertyId].isValid = true;\r\n    }\r\n\r\n    function showAllProperties() public view returns(Property[] memory){\r\n        Property[] memory allProperties = new Property[](propertyIDs.length);\r\n        for (uint i = 0; i < propertyIDs.length; i++) {\r\n            string memory id = propertyIDs[i];\r\n            allProperties[i] = properties[id];\r\n        }\r\n        return allProperties;\r\n\r\n}\r\n\r\n    modifier onlyGovernment() {\r\n        require(msg.sender == government, \"Only the government can perform this action.\");\r\n        _;\r\n    }\r\n\r\n    modifier onlyValid(string memory _propertyId){\r\n        require(properties[_propertyId].isValid== true, \"Your property is not valid.\");\r\n        _;\r\n    }\r\n\r\n\r\n}\r\n\r\n\r\n",
  "sourcePath": "C:\\Users\\vishm\\Desktop\\FY-project\\SmartContracts\\contracts\\RealEstateNFT.sol",
  "compiler": {
    "name": "solc",
    "version": "0.8.9+commit.e5eed63a.Emscripten.clang"
  },
  "schemaVersion": "3.4.3",
  "updatedAt": "2023-05-02T07:31:10.487Z",
  "networkType": "ethereum",
  "devdoc": {
    "kind": "dev",
    "methods": {},
    "version": 1
  },
  "userdoc": {
    "kind": "user",
    "methods": {},
    "version": 1
  }
}