{
  "contractName": "RealEstateNFT",
  "abi": [
    {
      "inputs": [],
      "stateMutability": "nonpayable",
      "type": "constructor"
    },
    {
      "anonymous": false,
      "inputs": [
        {
          "indexed": false,
          "internalType": "address payable",
          "name": "owner",
          "type": "address"
        },
        {
          "indexed": false,
          "internalType": "uint256",
          "name": "price",
          "type": "uint256"
        },
        {
          "indexed": false,
          "internalType": "uint256",
          "name": "tax",
          "type": "uint256"
        },
        {
          "indexed": false,
          "internalType": "address",
          "name": "approvedBuyer",
          "type": "address"
        },
        {
          "indexed": false,
          "internalType": "bool",
          "name": "isValid",
          "type": "bool"
        },
        {
          "indexed": false,
          "internalType": "string",
          "name": "id",
          "type": "string"
        }
      ],
      "name": "approve_Property",
      "type": "event"
    },
    {
      "anonymous": false,
      "inputs": [
        {
          "indexed": false,
          "internalType": "address payable",
          "name": "owner",
          "type": "address"
        },
        {
          "indexed": false,
          "internalType": "uint256",
          "name": "price",
          "type": "uint256"
        },
        {
          "indexed": false,
          "internalType": "uint256",
          "name": "tax",
          "type": "uint256"
        },
        {
          "indexed": false,
          "internalType": "address",
          "name": "approvedBuyer",
          "type": "address"
        },
        {
          "indexed": false,
          "internalType": "bool",
          "name": "isValid",
          "type": "bool"
        },
        {
          "indexed": false,
          "internalType": "string",
          "name": "id",
          "type": "string"
        }
      ],
      "name": "buy_Property",
      "type": "event"
    },
    {
      "anonymous": false,
      "inputs": [
        {
          "indexed": false,
          "internalType": "address payable",
          "name": "owner",
          "type": "address"
        },
        {
          "indexed": false,
          "internalType": "uint256",
          "name": "price",
          "type": "uint256"
        },
        {
          "indexed": false,
          "internalType": "uint256",
          "name": "tax",
          "type": "uint256"
        },
        {
          "indexed": false,
          "internalType": "address",
          "name": "approvedBuyer",
          "type": "address"
        },
        {
          "indexed": false,
          "internalType": "bool",
          "name": "isValid",
          "type": "bool"
        },
        {
          "indexed": false,
          "internalType": "string",
          "name": "id",
          "type": "string"
        }
      ],
      "name": "change_Price",
      "type": "event"
    },
    {
      "anonymous": false,
      "inputs": [
        {
          "indexed": false,
          "internalType": "address payable",
          "name": "owner",
          "type": "address"
        },
        {
          "indexed": false,
          "internalType": "uint256",
          "name": "price",
          "type": "uint256"
        },
        {
          "indexed": false,
          "internalType": "uint256",
          "name": "tax",
          "type": "uint256"
        },
        {
          "indexed": false,
          "internalType": "address",
          "name": "approvedBuyer",
          "type": "address"
        },
        {
          "indexed": false,
          "internalType": "bool",
          "name": "isValid",
          "type": "bool"
        },
        {
          "indexed": false,
          "internalType": "string",
          "name": "id",
          "type": "string"
        }
      ],
      "name": "sell_Property",
      "type": "event"
    },
    {
      "inputs": [],
      "name": "government",
      "outputs": [
        {
          "internalType": "address payable",
          "name": "",
          "type": "address"
        }
      ],
      "stateMutability": "view",
      "type": "function",
      "constant": true
    },
    {
      "inputs": [],
      "name": "name",
      "outputs": [
        {
          "internalType": "string",
          "name": "",
          "type": "string"
        }
      ],
      "stateMutability": "view",
      "type": "function",
      "constant": true
    },
    {
      "inputs": [
        {
          "internalType": "string",
          "name": "",
          "type": "string"
        }
      ],
      "name": "properties",
      "outputs": [
        {
          "internalType": "address payable",
          "name": "owner",
          "type": "address"
        },
        {
          "internalType": "uint256",
          "name": "price",
          "type": "uint256"
        },
        {
          "internalType": "uint256",
          "name": "tax",
          "type": "uint256"
        },
        {
          "internalType": "address",
          "name": "approvedBuyer",
          "type": "address"
        },
        {
          "internalType": "bool",
          "name": "isValid",
          "type": "bool"
        },
        {
          "internalType": "string",
          "name": "id",
          "type": "string"
        }
      ],
      "stateMutability": "view",
      "type": "function",
      "constant": true
    },
    {
      "inputs": [],
      "name": "propertyCounter",
      "outputs": [
        {
          "internalType": "uint256",
          "name": "",
          "type": "uint256"
        }
      ],
      "stateMutability": "view",
      "type": "function",
      "constant": true
    },
    {
      "inputs": [
        {
          "internalType": "string",
          "name": "",
          "type": "string"
        },
        {
          "internalType": "uint256",
          "name": "",
          "type": "uint256"
        }
      ],
      "name": "transactions",
      "outputs": [
        {
          "internalType": "address",
          "name": "previousOwner",
          "type": "address"
        },
        {
          "internalType": "address",
          "name": "newOwner",
          "type": "address"
        },
        {
          "internalType": "uint256",
          "name": "price",
          "type": "uint256"
        },
        {
          "internalType": "uint256",
          "name": "timestamp",
          "type": "uint256"
        },
        {
          "internalType": "string",
          "name": "id",
          "type": "string"
        }
      ],
      "stateMutability": "view",
      "type": "function",
      "constant": true
    },
    {
      "inputs": [
        {
          "internalType": "address",
          "name": "_seller",
          "type": "address"
        },
        {
          "internalType": "string",
          "name": "_propertyId",
          "type": "string"
        }
      ],
      "name": "mint",
      "outputs": [],
      "stateMutability": "nonpayable",
      "type": "function"
    },
    {
      "inputs": [
        {
          "internalType": "string",
          "name": "_propertyId",
          "type": "string"
        },
        {
          "internalType": "address",
          "name": "_buyer",
          "type": "address"
        }
      ],
      "name": "approveSale",
      "outputs": [],
      "stateMutability": "nonpayable",
      "type": "function"
    },
    {
      "inputs": [
        {
          "internalType": "string",
          "name": "_propertyId",
          "type": "string"
        }
      ],
      "name": "transfer",
      "outputs": [],
      "stateMutability": "payable",
      "type": "function",
      "payable": true
    },
    {
      "inputs": [
        {
          "internalType": "string",
          "name": "_propertyId",
          "type": "string"
        }
      ],
      "name": "getProperty",
      "outputs": [
        {
          "components": [
            {
              "internalType": "address payable",
              "name": "owner",
              "type": "address"
            },
            {
              "internalType": "uint256",
              "name": "price",
              "type": "uint256"
            },
            {
              "internalType": "uint256",
              "name": "tax",
              "type": "uint256"
            },
            {
              "internalType": "address",
              "name": "approvedBuyer",
              "type": "address"
            },
            {
              "internalType": "bool",
              "name": "isValid",
              "type": "bool"
            },
            {
              "internalType": "string",
              "name": "id",
              "type": "string"
            }
          ],
          "internalType": "struct RealEstateNFT.Property",
          "name": "",
          "type": "tuple"
        }
      ],
      "stateMutability": "view",
      "type": "function",
      "constant": true
    },
    {
      "inputs": [
        {
          "internalType": "string",
          "name": "_propertyId",
          "type": "string"
        }
      ],
      "name": "getTransaction",
      "outputs": [
        {
          "components": [
            {
              "internalType": "address",
              "name": "previousOwner",
              "type": "address"
            },
            {
              "internalType": "address",
              "name": "newOwner",
              "type": "address"
            },
            {
              "internalType": "uint256",
              "name": "price",
              "type": "uint256"
            },
            {
              "internalType": "uint256",
              "name": "timestamp",
              "type": "uint256"
            },
            {
              "internalType": "string",
              "name": "id",
              "type": "string"
            }
          ],
          "internalType": "struct RealEstateNFT.Transaction[]",
          "name": "",
          "type": "tuple[]"
        }
      ],
      "stateMutability": "view",
      "type": "function",
      "constant": true
    },
    {
      "inputs": [
        {
          "internalType": "string",
          "name": "_propertyId",
          "type": "string"
        },
        {
          "internalType": "uint256",
          "name": "newPrice",
          "type": "uint256"
        }
      ],
      "name": "changePrice",
      "outputs": [],
      "stateMutability": "nonpayable",
      "type": "function"
    },
    {
      "inputs": [
        {
          "internalType": "string",
          "name": "_propertyId",
          "type": "string"
        }
      ],
      "name": "destroyProperty",
      "outputs": [],
      "stateMutability": "nonpayable",
      "type": "function"
    },
    {
      "inputs": [
        {
          "internalType": "string",
          "name": "_propertyId",
          "type": "string"
        }
      ],
      "name": "makeValid",
      "outputs": [],
      "stateMutability": "nonpayable",
      "type": "function"
    }
  ],
  "bytecode": "0x60806040523480156200001157600080fd5b50600180546001600160a01b031916331790556040805180820190915260108082526f57656233204d61726b6574506c61636560801b60209092019182526200005d9160009162000064565b5062000147565b82805462000072906200010a565b90600052602060002090601f016020900481019282620000965760008555620000e1565b82601f10620000b157805160ff1916838001178555620000e1565b82800160010185558215620000e1579182015b82811115620000e1578251825591602001919060010190620000c4565b50620000ef929150620000f3565b5090565b5b80821115620000ef5760008155600101620000f4565b600181811c908216806200011f57607f821691505b602082108114156200014157634e487b7160e01b600052602260045260246000fd5b50919050565b61197d80620001576000396000f3fe6080604052600436106100c25760003560e01c8063705c304f1161007f578063ab331a3411610059578063ab331a3414610222578063ac2ccd071461024f578063d090e47e1461027c578063d0def521146102a057600080fd5b8063705c304f146101bd5780639be8f2a6146101dd578063a0258d0b1461020f57600080fd5b806306fdde03146100c75780631b5b3176146100f25780631fa19596146101145780632672f526146101345780633d82e7dd1461016c5780634935efe71461018c575b600080fd5b3480156100d357600080fd5b506100dc6102c0565b6040516100e991906113a7565b60405180910390f35b3480156100fe57600080fd5b5061011261010d366004611480565b61034e565b005b34801561012057600080fd5b5061011261012f3660046114ce565b610506565b34801561014057600080fd5b50600154610154906001600160a01b031681565b6040516001600160a01b0390911681526020016100e9565b34801561017857600080fd5b50610112610187366004611513565b61071c565b34801561019857600080fd5b506101ac6101a73660046114ce565b610787565b6040516100e9959493929190611550565b3480156101c957600080fd5b506101126101d8366004611513565b61087e565b3480156101e957600080fd5b506101fd6101f8366004611513565b6108ba565b6040516100e996959493929190611595565b61011261021d366004611513565b610999565b34801561022e57600080fd5b5061024261023d366004611513565b610cc2565b6040516100e991906115e3565b34801561025b57600080fd5b5061026f61026a366004611513565b610e73565b6040516100e9919061163e565b34801561028857600080fd5b5061029260035481565b6040519081526020016100e9565b3480156102ac57600080fd5b506101126102bb3660046116df565b610fbd565b600080546102cd9061172d565b80601f01602080910402602001604051908101604052809291908181526020018280546102f99061172d565b80156103465780601f1061031b57610100808354040283529160200191610346565b820191906000526020600020905b81548152906001019060200180831161032957829003601f168201915b505050505081565b8160028160405161035f9190611762565b90815260405160209181900391909101902060030154600160a01b900460ff1615156001146103a95760405162461bcd60e51b81526004016103a09061177e565b60405180910390fd5b60006002846040516103bb9190611762565b90815260405190819003602001902080549091506001600160a01b031633146104265760405162461bcd60e51b815260206004820181905260248201527f4f6e6c7920746865206f776e65722063616e20617070726f76652073616c652e60448201526064016103a0565b80546001600160a01b03848116911614156104835760405162461bcd60e51b815260206004820181905260248201527f73656c6c65722063616e6e6f742073656c6c20746f207468656d73656c76657360448201526064016103a0565b6003810180546001600160a01b0319166001600160a01b03858116918217928390558354600185015460028601546040517f3e13046edccab8a92e4d6d237f8ab0f100d55bed163a2d9af108dde68819f491966104f896949095169492939192600160a01b900460ff169060048901906117b5565b60405180910390a150505050565b816002816040516105179190611762565b90815260405160209181900391909101902060030154600160a01b900460ff1615156001146105585760405162461bcd60e51b81526004016103a09061177e565b6002836040516105689190611762565b90815260405190819003602001902054336001600160a01b03909116146105d15760405162461bcd60e51b815260206004820152601c60248201527f796f75206861766520746f206f776e207468652070726f70657274790000000060448201526064016103a0565b816002846040516105e29190611762565b9081526020016040518091039020600101819055507f12ea5d3fd5e6d574168638800e5bc93e36fe84d488ebbeac173168754d0244b86002846040516106289190611762565b908152604051908190036020018120546001600160a01b031690600290610650908790611762565b9081526020016040518091039020600101546002866040516106729190611762565b9081526020016040518091039020600201546002876040516106949190611762565b908152604051908190036020018120600301546001600160a01b0316906002906106bf908a90611762565b9081526040519081900360200181206003015460ff600160a01b90910416906002906106ec908b90611762565b908152602001604051809103902060040160405161070f969594939291906117b5565b60405180910390a1505050565b6001546001600160a01b031633146107465760405162461bcd60e51b81526004016103a090611891565b60006002826040516107589190611762565b9081526040519081900360200190206003018054911515600160a01b0260ff60a01b1990921691909117905550565b815160208184018101805160048252928201918501919091209190528054829081106107b257600080fd5b6000918252602090912060059091020180546001820154600283015460038401546004850180546001600160a01b0395861698509390941695509093909290916107fb9061172d565b80601f01602080910402602001604051908101604052809291908181526020018280546108279061172d565b80156108745780601f1061084957610100808354040283529160200191610874565b820191906000526020600020905b81548152906001019060200180831161085757829003601f168201915b5050505050905085565b6001546001600160a01b031633146108a85760405162461bcd60e51b81526004016103a090611891565b60016002826040516107589190611762565b805160208183018101805160028083529383019290940191909120929052815460018301549183015460038401546004850180546001600160a01b03948516969394831693600160a01b90930460ff169291906109169061172d565b80601f01602080910402602001604051908101604052809291908181526020018280546109429061172d565b801561098f5780601f106109645761010080835404028352916020019161098f565b820191906000526020600020905b81548152906001019060200180831161097257829003601f168201915b5050505050905086565b806002816040516109aa9190611762565b90815260405160209181900391909101902060030154600160a01b900460ff1615156001146109eb5760405162461bcd60e51b81526004016103a09061177e565b60006002836040516109fd9190611762565b90815260405190819003602001902060038101549091506001600160a01b03163314610a615760405162461bcd60e51b8152602060048201526013602482015272213abcb2b9103737ba1030b8383937bb32b21760691b60448201526064016103a0565b8060010154341015610aad5760405162461bcd60e51b815260206004820152601560248201527424b739bab33334b1b4b2b73a103830bcb6b2b73a1760591b60448201526064016103a0565b68022b1c8c1227a00000816001015410610ad75760058160010154610ad291906118f3565b610ae8565b60038160010154610ae891906118f3565b60028201819055815460018301546001600160a01b03909116916108fc91610b109190611915565b6040518115909202916000818181858888f19350505050158015610b38573d6000803e3d6000fd5b5060015460028201546040516001600160a01b039092169181156108fc0291906000818181858888f19350505050158015610b77573d6000803e3d6000fd5b50600483604051610b889190611762565b90815260408051918290036020908101832060a08401835284546001600160a01b039081168552338584019081526001808801549587019586524260608801908152608088018b815285548084018755600096875295879020895160059097020180549686166001600160a01b03199788161781559351928401805493909516929095169190911790925593516002850155516003840155518051610c3392600485019201906112b2565b50508154336001600160a01b0319909116811783556001830154600284015460038501546040517f9b04f059a2655cbf32357282d75fd3ede8a676484dad7cb2465078ad93ed3def9550610ca5949392916001600160a01b03811691600160a01b90910460ff169060048901906117b5565b60405180910390a160030180546001600160a01b03191690555050565b610d0f6040518060c0016040528060006001600160a01b03168152602001600081526020016000815260200160006001600160a01b03168152602001600015158152602001606081525090565b81600281604051610d209190611762565b90815260405160209181900391909101902060030154600160a01b900460ff161515600114610d615760405162461bcd60e51b81526004016103a09061177e565b6000600284604051610d739190611762565b908152604080516020928190038301812060c08201835280546001600160a01b03908116835260018201549483019490945260028101549282019290925260038201549283166060820152600160a01b90920460ff161515608083015260048101805460a084019190610de59061172d565b80601f0160208091040260200160405190810160405280929190818152602001828054610e119061172d565b8015610e5e5780601f10610e3357610100808354040283529160200191610e5e565b820191906000526020600020905b815481529060010190602001808311610e4157829003601f168201915b50505091909252509194505050505b50919050565b60606000600483604051610e879190611762565b9081526020016040518091039020805480602002602001604051908101604052809291908181526020016000905b82821015610fb15760008481526020908190206040805160a0810182526005860290920180546001600160a01b0390811684526001820154169383019390935260028301549082015260038201546060820152600482018054919291608084019190610f209061172d565b80601f0160208091040260200160405190810160405280929190818152602001828054610f4c9061172d565b8015610f995780601f10610f6e57610100808354040283529160200191610f99565b820191906000526020600020905b815481529060010190602001808311610f7c57829003601f168201915b50505050508152505081526020019060010190610eb5565b50929695505050505050565b6001546001600160a01b03163314610fe75760405162461bcd60e51b81526004016103a090611891565b6040805160c0810182526001600160a01b038416815260006020820181905281830181905260608201526001608082015260a08101839052905160029061102f908490611762565b9081526040805160209281900383019020835181546001600160a01b0319166001600160a01b0391821617825584840151600183015591840151600282015560608401516003820180546080870151929094166001600160a81b031990941693909317600160a01b911515919091021790915560a0830151805191926110bd926004850192909101906112b2565b509050506004816040516110d19190611762565b90815260408051918290036020908101832060a08401835260008085526001600160a01b0387811686850190815294860182815242606088019081526080880189815285546001818101885596865294879020895160059096020180549585166001600160a01b0319968716178155975195880180549690941695909416949094179091555160028501559051600384015551805161117692600485019201906112b2565b5050507fc576d80b34b0a616a83a75299850399c64ff38fb6a1ac267126b36ebdba9d26b6002826040516111aa9190611762565b908152604051908190036020018120546001600160a01b0316906002906111d2908590611762565b9081526020016040518091039020600101546002846040516111f49190611762565b9081526020016040518091039020600201546002856040516112169190611762565b908152604051908190036020018120600301546001600160a01b031690600290611241908890611762565b9081526040519081900360200181206003015460ff600160a01b909104169060029061126e908990611762565b9081526020016040518091039020600401604051611291969594939291906117b5565b60405180910390a1600380549060006112a98361192c565b91905055505050565b8280546112be9061172d565b90600052602060002090601f0160209004810192826112e05760008555611326565b82601f106112f957805160ff1916838001178555611326565b82800160010185558215611326579182015b8281111561132657825182559160200191906001019061130b565b50611332929150611336565b5090565b5b808211156113325760008155600101611337565b60005b8381101561136657818101518382015260200161134e565b83811115611375576000848401525b50505050565b6000815180845261139381602086016020860161134b565b601f01601f19169290920160200192915050565b6020815260006113ba602083018461137b565b9392505050565b634e487b7160e01b600052604160045260246000fd5b600082601f8301126113e857600080fd5b813567ffffffffffffffff80821115611403576114036113c1565b604051601f8301601f19908116603f0116810190828211818310171561142b5761142b6113c1565b8160405283815286602085880101111561144457600080fd5b836020870160208301376000602085830101528094505050505092915050565b80356001600160a01b038116811461147b57600080fd5b919050565b6000806040838503121561149357600080fd5b823567ffffffffffffffff8111156114aa57600080fd5b6114b6858286016113d7565b9250506114c560208401611464565b90509250929050565b600080604083850312156114e157600080fd5b823567ffffffffffffffff8111156114f857600080fd5b611504858286016113d7565b95602094909401359450505050565b60006020828403121561152557600080fd5b813567ffffffffffffffff81111561153c57600080fd5b611548848285016113d7565b949350505050565b6001600160a01b03868116825285166020820152604081018490526060810183905260a06080820181905260009061158a9083018461137b565b979650505050505050565b6001600160a01b038781168252602082018790526040820186905284166060820152821515608082015260c060a082018190526000906115d79083018461137b565b98975050505050505050565b60208152600060018060a01b038084511660208401526020840151604084015260408401516060840152806060850151166080840152506080830151151560a083015260a083015160c08084015261154860e084018261137b565b60006020808301818452808551808352604092508286019150828160051b87010184880160005b838110156116d157888303603f19018552815180516001600160a01b03908116855288820151168885015286810151878501526060808201519085015260809081015160a0918501829052906116bd8186018361137b565b968901969450505090860190600101611665565b509098975050505050505050565b600080604083850312156116f257600080fd5b6116fb83611464565b9150602083013567ffffffffffffffff81111561171757600080fd5b611723858286016113d7565b9150509250929050565b600181811c9082168061174157607f821691505b60208210811415610e6d57634e487b7160e01b600052602260045260246000fd5b6000825161177481846020870161134b565b9190910192915050565b6020808252601b908201527f596f75722070726f7065727479206973206e6f742076616c69642e0000000000604082015260600190565b6001600160a01b0387811682526020808301889052604083018790529085166060830152831515608083015260c060a083015282546000918291600181811c908281168061180457607f831692505b84831081141561182257634e487b7160e01b86526022600452602486fd5b60c0880183905260e0880181801561184157600181146118525761187d565b60ff1986168252868201975061187d565b60008b81526020902060005b868110156118775781548482015290850190880161185e565b83019850505b50959e9d5050505050505050505050505050565b6020808252602c908201527f4f6e6c792074686520676f7665726e6d656e742063616e20706572666f726d2060408201526b3a3434b99030b1ba34b7b71760a11b606082015260800190565b634e487b7160e01b600052601160045260246000fd5b60008261191057634e487b7160e01b600052601260045260246000fd5b500490565b600082821015611927576119276118dd565b500390565b6000600019821415611940576119406118dd565b506001019056fea26469706673582212209ce05c20ef278f7465182c25b7929d5576dfddae6ee39b259af532b0de3df7f764736f6c63430008090033",
  "immutableReferences": {},
  "source": "// SPDX-License-Identifier: MIT\r\n\r\npragma solidity ^0.8.9;\r\n\r\ncontract RealEstateNFT {\r\n    string public name;\r\n    address payable public government;\r\n    mapping (string => Property) public properties;\r\n\r\n    // mapping (address => Property[]) public ownerOf;\r\n    //onwerOf(X983nd) => [prop1, prop2];\r\n    \r\n    uint256 public propertyCounter;\r\n\r\n    struct Property {\r\n        address payable owner;\r\n        uint256 price;\r\n        uint256 tax;\r\n        address approvedBuyer;\r\n        bool isValid;\r\n        string id;\r\n        // Transaction[] transactions;\r\n    }\r\n\r\n    event sell_Property (\r\n        address payable owner,\r\n        uint256 price,\r\n        uint256 tax,\r\n        address approvedBuyer,\r\n        bool isValid,\r\n        string id\r\n    );\r\n\r\n    event approve_Property (\r\n        address payable owner,\r\n        uint256 price,\r\n        uint256 tax,\r\n        address approvedBuyer,\r\n        bool isValid,\r\n        string id\r\n    );\r\n\r\n    event change_Price (\r\n        address payable owner,\r\n        uint256 price,\r\n        uint256 tax,\r\n        address approvedBuyer,\r\n        bool isValid,\r\n        string id\r\n\r\n\r\n    );\r\n\r\n    event buy_Property (\r\n        address payable owner,\r\n        uint256 price,\r\n        uint256 tax,\r\n        address approvedBuyer,\r\n        bool isValid,\r\n        string id\r\n    );\r\n\r\n    mapping(string => Transaction[]) public transactions;\r\n\r\n    struct Transaction {\r\n        address previousOwner;\r\n        address newOwner;\r\n        uint256 price;\r\n        uint256 timestamp;\r\n        string id;\r\n    }\r\n\r\n    // event sell_Transaction (\r\n    //     address previousOwner,\r\n    //     address newOwner,\r\n    //     uint256 price,\r\n    //     uint256 timestamp\r\n    // );\r\n\r\n    // event buy_Transaction (\r\n    //     address previousOwner,\r\n    //     address newOwner,\r\n    //     uint256 price,\r\n    //     uint256 timestamp\r\n    // );\r\n\r\n    constructor(){\r\n        government = payable(msg.sender);\r\n        name = \"Web3 MarketPlace\";\r\n    }\r\n\r\n    function mint(address _seller, string memory _propertyId) public onlyGovernment{\r\n        properties[_propertyId] = Property({\r\n            owner: payable(_seller),\r\n            price: 0,\r\n            tax: 0,\r\n            approvedBuyer: address(0),\r\n            isValid: true,\r\n            id:_propertyId\r\n            // transactions: new Transaction[]\r\n            \r\n        });\r\n        transactions[_propertyId].push(Transaction({\r\n                previousOwner: address(0),\r\n                newOwner: _seller,\r\n                price: 0,\r\n                timestamp: block.timestamp,\r\n                id: _propertyId\r\n            }));\r\n        \r\n        emit sell_Property(properties[_propertyId].owner, properties[_propertyId].price, properties[_propertyId].tax, properties[_propertyId].approvedBuyer, properties[_propertyId].isValid, properties[_propertyId].id);\r\n        // emit mint_Transaction(transactions[propertyCounter][0].previousOwner, transactions[propertyCounter][1].newOwner, transactions[propertyCounter][2].price, transactions[propertyCounter][3].timestamp);\r\n        propertyCounter ++;\r\n    }\r\n\r\n    function approveSale(string memory _propertyId, address _buyer) public onlyValid(_propertyId){\r\n        Property storage property = properties[_propertyId];\r\n        require(property.owner == msg.sender, \"Only the owner can approve sale.\");\r\n        require(property.owner != _buyer, \"seller cannot sell to themselves\");\r\n        property.approvedBuyer = _buyer;\r\n        emit approve_Property(property.owner, property.price, property.tax, property.approvedBuyer, property.isValid, property.id);\r\n    }\r\n\r\n    function transfer(string memory _propertyId) public payable onlyValid(_propertyId){\r\n        Property storage property = properties[_propertyId];\r\n        require(property.approvedBuyer == msg.sender, \"Buyer not approved.\");\r\n        require(msg.value >= property.price, \"Insufficient payment.\");\r\n\r\n        property.tax=property.price<40000000000000000000? property.price/3: property.price/5;\r\n        property.owner.transfer(property.price - property.tax);\r\n        government.transfer(property.tax);\r\n        transactions[_propertyId].push(Transaction({\r\n            previousOwner: property.owner,\r\n            newOwner: msg.sender,\r\n            price: property.price,\r\n            timestamp: block.timestamp,\r\n            id: _propertyId\r\n        }));\r\n        property.owner = payable(msg.sender);\r\n\r\n        emit buy_Property(property.owner, property.price, property.tax, property.approvedBuyer, property.isValid, property.id);\r\n        // emit sell_Transaction(transactions[_propertyId][0].previousOwner, transactions[_propertyId][1].newOwner, transactions[_propertyId][2].price, transactions[_propertyId][3].timestamp);\r\n\r\n        property.approvedBuyer = address(0);\r\n    }\r\n\r\n    function getProperty(string memory _propertyId) public view onlyValid(_propertyId) returns( Property memory) {\r\n        Property memory property = properties[_propertyId];\r\n        return property;\r\n    }\r\n\r\n    function getTransaction(string memory _propertyId) public view returns (Transaction[] memory) {\r\n        Transaction[] memory transaction = transactions[_propertyId];\r\n        return transaction;\r\n    }\r\n\r\n    function changePrice(string memory _propertyId, uint256 newPrice) public onlyValid(_propertyId){\r\n        require(msg.sender == properties[_propertyId].owner, \"you have to own the property\");\r\n        properties[_propertyId].price = newPrice;\r\n        emit change_Price(properties[_propertyId].owner, properties[_propertyId].price, properties[_propertyId].tax, properties[_propertyId].approvedBuyer, properties[_propertyId].isValid, properties[_propertyId].id);\r\n        \r\n    }\r\n\r\n    function destroyProperty(string memory _propertyId) public onlyGovernment{\r\n        properties[_propertyId].isValid = false;\r\n    }\r\n\r\n    function makeValid(string memory _propertyId) public onlyGovernment{\r\n        properties[_propertyId].isValid = true;\r\n    }\r\n\r\n    modifier onlyGovernment() {\r\n        require(msg.sender == government, \"Only the government can perform this action.\");\r\n        _;\r\n    }\r\n\r\n    modifier onlyValid(string memory _propertyId){\r\n        require(properties[_propertyId].isValid== true, \"Your property is not valid.\");\r\n        _;\r\n    }\r\n\r\n\r\n}\r\n",
  "sourcePath": "C:\\Users\\vishm\\Desktop\\FY-project\\SmartContracts\\contracts\\RealEstateNFT.sol",
  "compiler": {
    "name": "solc",
    "version": "0.8.9+commit.e5eed63a.Emscripten.clang"
  },
  "schemaVersion": "3.4.3",
  "updatedAt": "2023-04-26T08:02:59.649Z",
  "networkType": "ethereum",
  "devdoc": {
    "kind": "dev",
    "methods": {},
    "version": 1
  },
  "userdoc": {
    "kind": "user",
    "methods": {},
    "version": 1
  }
}