{
  "contractName": "RealEstateNFT",
  "abi": [
    {
      "inputs": [],
      "stateMutability": "nonpayable",
      "type": "constructor"
    },
    {
      "anonymous": false,
      "inputs": [
        {
          "indexed": false,
          "internalType": "address payable",
          "name": "owner",
          "type": "address"
        },
        {
          "indexed": false,
          "internalType": "uint256",
          "name": "price",
          "type": "uint256"
        },
        {
          "indexed": false,
          "internalType": "uint256",
          "name": "tax",
          "type": "uint256"
        },
        {
          "indexed": false,
          "internalType": "address",
          "name": "approvedBuyer",
          "type": "address"
        },
        {
          "indexed": false,
          "internalType": "bool",
          "name": "isValid",
          "type": "bool"
        },
        {
          "indexed": false,
          "internalType": "uint256",
          "name": "id",
          "type": "uint256"
        }
      ],
      "name": "approve_Property",
      "type": "event"
    },
    {
      "anonymous": false,
      "inputs": [
        {
          "indexed": false,
          "internalType": "address payable",
          "name": "owner",
          "type": "address"
        },
        {
          "indexed": false,
          "internalType": "uint256",
          "name": "price",
          "type": "uint256"
        },
        {
          "indexed": false,
          "internalType": "uint256",
          "name": "tax",
          "type": "uint256"
        },
        {
          "indexed": false,
          "internalType": "address",
          "name": "approvedBuyer",
          "type": "address"
        },
        {
          "indexed": false,
          "internalType": "bool",
          "name": "isValid",
          "type": "bool"
        },
        {
          "indexed": false,
          "internalType": "uint256",
          "name": "id",
          "type": "uint256"
        }
      ],
      "name": "buy_Property",
      "type": "event"
    },
    {
      "anonymous": false,
      "inputs": [
        {
          "indexed": false,
          "internalType": "address payable",
          "name": "owner",
          "type": "address"
        },
        {
          "indexed": false,
          "internalType": "uint256",
          "name": "price",
          "type": "uint256"
        },
        {
          "indexed": false,
          "internalType": "uint256",
          "name": "tax",
          "type": "uint256"
        },
        {
          "indexed": false,
          "internalType": "address",
          "name": "approvedBuyer",
          "type": "address"
        },
        {
          "indexed": false,
          "internalType": "bool",
          "name": "isValid",
          "type": "bool"
        },
        {
          "indexed": false,
          "internalType": "uint256",
          "name": "id",
          "type": "uint256"
        }
      ],
      "name": "change_Price",
      "type": "event"
    },
    {
      "anonymous": false,
      "inputs": [
        {
          "indexed": false,
          "internalType": "address payable",
          "name": "owner",
          "type": "address"
        },
        {
          "indexed": false,
          "internalType": "uint256",
          "name": "price",
          "type": "uint256"
        },
        {
          "indexed": false,
          "internalType": "uint256",
          "name": "tax",
          "type": "uint256"
        },
        {
          "indexed": false,
          "internalType": "address",
          "name": "approvedBuyer",
          "type": "address"
        },
        {
          "indexed": false,
          "internalType": "bool",
          "name": "isValid",
          "type": "bool"
        }
      ],
      "name": "sell_Property",
      "type": "event"
    },
    {
      "inputs": [],
      "name": "government",
      "outputs": [
        {
          "internalType": "address payable",
          "name": "",
          "type": "address"
        }
      ],
      "stateMutability": "view",
      "type": "function"
    },
    {
      "inputs": [],
      "name": "name",
      "outputs": [
        {
          "internalType": "string",
          "name": "",
          "type": "string"
        }
      ],
      "stateMutability": "view",
      "type": "function"
    },
    {
      "inputs": [
        {
          "internalType": "uint256",
          "name": "",
          "type": "uint256"
        }
      ],
      "name": "properties",
      "outputs": [
        {
          "internalType": "address payable",
          "name": "owner",
          "type": "address"
        },
        {
          "internalType": "uint256",
          "name": "price",
          "type": "uint256"
        },
        {
          "internalType": "uint256",
          "name": "tax",
          "type": "uint256"
        },
        {
          "internalType": "address",
          "name": "approvedBuyer",
          "type": "address"
        },
        {
          "internalType": "bool",
          "name": "isValid",
          "type": "bool"
        },
        {
          "internalType": "uint256",
          "name": "id",
          "type": "uint256"
        }
      ],
      "stateMutability": "view",
      "type": "function"
    },
    {
      "inputs": [],
      "name": "propertyCounter",
      "outputs": [
        {
          "internalType": "uint256",
          "name": "",
          "type": "uint256"
        }
      ],
      "stateMutability": "view",
      "type": "function"
    },
    {
      "inputs": [
        {
          "internalType": "uint256",
          "name": "",
          "type": "uint256"
        },
        {
          "internalType": "uint256",
          "name": "",
          "type": "uint256"
        }
      ],
      "name": "transactions",
      "outputs": [
        {
          "internalType": "address",
          "name": "previousOwner",
          "type": "address"
        },
        {
          "internalType": "address",
          "name": "newOwner",
          "type": "address"
        },
        {
          "internalType": "uint256",
          "name": "price",
          "type": "uint256"
        },
        {
          "internalType": "uint256",
          "name": "timestamp",
          "type": "uint256"
        }
      ],
      "stateMutability": "view",
      "type": "function"
    },
    {
      "inputs": [
        {
          "internalType": "address",
          "name": "seller",
          "type": "address"
        }
      ],
      "name": "mint",
      "outputs": [],
      "stateMutability": "nonpayable",
      "type": "function"
    },
    {
      "inputs": [
        {
          "internalType": "uint256",
          "name": "_propertyId",
          "type": "uint256"
        },
        {
          "internalType": "address",
          "name": "_buyer",
          "type": "address"
        }
      ],
      "name": "approveSale",
      "outputs": [],
      "stateMutability": "nonpayable",
      "type": "function"
    },
    {
      "inputs": [
        {
          "internalType": "uint256",
          "name": "_propertyId",
          "type": "uint256"
        }
      ],
      "name": "transfer",
      "outputs": [],
      "stateMutability": "payable",
      "type": "function"
    },
    {
      "inputs": [
        {
          "internalType": "uint256",
          "name": "_propertyId",
          "type": "uint256"
        }
      ],
      "name": "getProperty",
      "outputs": [
        {
          "internalType": "address",
          "name": "",
          "type": "address"
        },
        {
          "internalType": "uint256",
          "name": "",
          "type": "uint256"
        },
        {
          "internalType": "uint256",
          "name": "",
          "type": "uint256"
        },
        {
          "internalType": "address",
          "name": "",
          "type": "address"
        }
      ],
      "stateMutability": "view",
      "type": "function"
    },
    {
      "inputs": [
        {
          "internalType": "uint256",
          "name": "_propertyId",
          "type": "uint256"
        }
      ],
      "name": "getTransaction",
      "outputs": [
        {
          "internalType": "address",
          "name": "",
          "type": "address"
        },
        {
          "internalType": "address",
          "name": "",
          "type": "address"
        },
        {
          "internalType": "uint256",
          "name": "",
          "type": "uint256"
        },
        {
          "internalType": "uint256",
          "name": "",
          "type": "uint256"
        }
      ],
      "stateMutability": "view",
      "type": "function"
    },
    {
      "inputs": [
        {
          "internalType": "uint256",
          "name": "_propertyId",
          "type": "uint256"
        },
        {
          "internalType": "uint256",
          "name": "newPrice",
          "type": "uint256"
        }
      ],
      "name": "changePrice",
      "outputs": [],
      "stateMutability": "nonpayable",
      "type": "function"
    },
    {
      "inputs": [
        {
          "internalType": "uint256",
          "name": "_propertyId",
          "type": "uint256"
        }
      ],
      "name": "destroyProperty",
      "outputs": [],
      "stateMutability": "nonpayable",
      "type": "function"
    },
    {
      "inputs": [
        {
          "internalType": "uint256",
          "name": "_propertyId",
          "type": "uint256"
        }
      ],
      "name": "makeValid",
      "outputs": [],
      "stateMutability": "nonpayable",
      "type": "function"
    }
  ],
  "bytecode": "0x60806040523480156200001157600080fd5b50600180546001600160a01b031916331790556040805180820190915260108082526f57656233204d61726b6574506c61636560801b60209092019182526200005d9160009162000064565b5062000147565b82805462000072906200010a565b90600052602060002090601f016020900481019282620000965760008555620000e1565b82601f10620000b157805160ff1916838001178555620000e1565b82800160010185558215620000e1579182015b82811115620000e1578251825591602001919060010190620000c4565b50620000ef929150620000f3565b5090565b5b80821115620000ef5760008155600101620000f4565b600181811c908216806200011f57607f821691505b602082108114156200014157634e487b7160e01b600052602260045260246000fd5b50919050565b61114a80620001576000396000f3fe6080604052600436106100c25760003560e01c80634eaf9db61161007f578063b2be418011610059578063b2be418014610259578063b3de019c14610279578063d090e47e14610299578063f7b10808146102bd57600080fd5b80634eaf9db6146101f95780635b82ff6a146102195780636a6278421461023957600080fd5b806306fdde03146100c757806312514bba146100f25780631f0c6cfa146101075780632672f5261461012757806332665ffb1461015f57806333ea3dc8146101ae575b600080fd5b3480156100d357600080fd5b506100dc610331565b6040516100e99190610ea2565b60405180910390f35b610105610100366004610ef7565b6103bf565b005b34801561011357600080fd5b50610105610122366004610ef7565b610688565b34801561013357600080fd5b50600154610147906001600160a01b031681565b6040516001600160a01b0390911681526020016100e9565b34801561016b57600080fd5b5061017f61017a366004610ef7565b6106d6565b604080516001600160a01b039586168152602081019490945283019190915290911660608201526080016100e9565b3480156101ba57600080fd5b506101ce6101c9366004610ef7565b610753565b604080516001600160a01b0395861681529490931660208501529183015260608201526080016100e9565b34801561020557600080fd5b506101ce610214366004610f10565b610882565b34801561022557600080fd5b50610105610234366004610ef7565b6108d4565b34801561024557600080fd5b50610105610254366004610f4e565b61091c565b34801561026557600080fd5b50610105610274366004610f70565b610c50565b34801561028557600080fd5b50610105610294366004610f10565b610d7a565b3480156102a557600080fd5b506102af60035481565b6040519081526020016100e9565b3480156102c957600080fd5b5061031f6102d8366004610ef7565b6002602081905260009182526040909120805460018201549282015460038301546004909301546001600160a01b0392831694939192821691600160a01b900460ff169086565b6040516100e996959493929190610f9c565b6000805461033e90610fd6565b80601f016020809104026020016040519081016040528092919081815260200182805461036a90610fd6565b80156103b75780601f1061038c576101008083540402835291602001916103b7565b820191906000526020600020905b81548152906001019060200180831161039a57829003601f168201915b505050505081565b6000818152600260205260409020600301548190600160a01b900460ff1615156001146104075760405162461bcd60e51b81526004016103fe90611011565b60405180910390fd5b600082815260026020526040902060038101546001600160a01b031633146104675760405162461bcd60e51b8152602060048201526013602482015272213abcb2b9103737ba1030b8383937bb32b21760691b60448201526064016103fe565b80600101543410156104b35760405162461bcd60e51b815260206004820152601560248201527424b739bab33334b1b4b2b73a103830bcb6b2b73a1760591b60448201526064016103fe565b68022b1c8c1227a000008160010154106104dd57600581600101546104d8919061105e565b6104ee565b600381600101546104ee919061105e565b60028201819055815460018301546001600160a01b03909116916108fc916105169190611080565b6040518115909202916000818181858888f1935050505015801561053e573d6000803e3d6000fd5b5060015460028201546040516001600160a01b039092169181156108fc0291906000818181858888f1935050505015801561057d573d6000803e3d6000fd5b506000838152600460208181526040808420815160808101835286546001600160a01b039081168252338286018181526001808b018054868901908152426060880190815288548085018a55988d5299909b209551968a0290950180549685166001600160a01b03199788161781559151908201805491851691871691909117905597516002808a01919091559551600398890155885490931683178855905493870154958701549487015492517fceb4f680836a5a5415cc6a0c97f1f1ae77a36395a69a4aaa561e25a45380f3649661066b9693959490939283169260ff600160a01b9091041691610f9c565b60405180910390a160030180546001600160a01b03191690555050565b6001546001600160a01b031633146106b25760405162461bcd60e51b81526004016103fe90611097565b6000908152600260205260409020600301805460ff60a01b1916600160a01b179055565b6000818152600260205260408120600301548190819081908590600160a01b900460ff16151560011461071b5760405162461bcd60e51b81526004016103fe90611011565b5050506000928352505060026020819052604090912080546001820154928201546003909201546001600160a01b0391821694911690565b600080600080600060046000878152602001908152602001600020805480602002602001604051908101604052809291908181526020016000905b828210156107f0576000848152602090819020604080516080810182526004860290920180546001600160a01b03908116845260018083015490911684860152600282015492840192909252600301546060830152908352909201910161078e565b50505050905080600181518110610809576108096110e3565b60200260200101516020015181600181518110610828576108286110e3565b60200260200101516000015182600181518110610847576108476110e3565b60200260200101516040015183600181518110610866576108666110e3565b6020026020010151606001519450945094509450509193509193565b6004602052816000526040600020818154811061089e57600080fd5b600091825260209091206004909102018054600182015460028301546003909301546001600160a01b0392831695509116925084565b6001546001600160a01b031633146108fe5760405162461bcd60e51b81526004016103fe90611097565b6000908152600260205260409020600301805460ff60a01b19169055565b6001546001600160a01b031633146109465760405162461bcd60e51b81526004016103fe90611097565b6040518060c00160405280826001600160a01b03168152602001600081526020016000815260200160006001600160a01b0316815260200160011515815260200160035481525060026000600354815260200190815260200160002060008201518160000160006101000a8154816001600160a01b0302191690836001600160a01b03160217905550602082015181600101556040820151816002015560608201518160030160006101000a8154816001600160a01b0302191690836001600160a01b0316021790555060808201518160030160146101000a81548160ff02191690831515021790555060a08201518160040155905050600460006003548152602001908152602001600020604051806080016040528060006001600160a01b03168152602001836001600160a01b031681526020016000815260200142815250908060018154018082558091505060019003906000526020600020906004020160009091909190915060008201518160000160006101000a8154816001600160a01b0302191690836001600160a01b0316021790555060208201518160010160006101000a8154816001600160a01b0302191690836001600160a01b03160217905550604082015181600201556060820151816003015550507fd192add9cf2fcfb3339d6a89da1ce3f82ba94879708ccbfc36f55485692ed7f060026000600354815260200190815260200160002060000160009054906101000a90046001600160a01b0316600260006003548152602001908152602001600020600101546002600060035481526020019081526020016000206002015460026000600354815260200190815260200160002060030160009054906101000a90046001600160a01b031660026000600354815260200190815260200160002060030160149054906101000a900460ff16604051610c309594939291906001600160a01b039586168152602081019490945260408401929092529092166060820152901515608082015260a00190565b60405180910390a160038054906000610c48836110f9565b919050555050565b6000828152600260205260409020600301548290600160a01b900460ff161515600114610c8f5760405162461bcd60e51b81526004016103fe90611011565b600083815260026020526040902080546001600160a01b03163314610cf65760405162461bcd60e51b815260206004820181905260248201527f4f6e6c7920746865206f776e65722063616e20617070726f76652073616c652e60448201526064016103fe565b6003810180546001600160a01b0319166001600160a01b038581169182179283905583546001850154600286015460048701546040517f77c70ad2540f677866512f69fafea1da6ac99a2e96427df7abcbd27b11f8e58497610d6c97959096169593949293600160a01b900460ff169190610f9c565b60405180910390a150505050565b6000828152600260205260409020600301548290600160a01b900460ff161515600114610db95760405162461bcd60e51b81526004016103fe90611011565b6000838152600260205260409020546001600160a01b03163314610e1f5760405162461bcd60e51b815260206004820152601c60248201527f796f75206861766520746f206f776e207468652070726f70657274790000000060448201526064016103fe565b60008381526002602081905260409182902060018101859055805491810154600382015460049092015493517f31a2e9e2d592e0ea74a2f0fd71eab5abdec3a08d8f944dde19b0e941724b7bca94610e95946001600160a01b039081169489949391811692600160a01b90910460ff1691610f9c565b60405180910390a1505050565b600060208083528351808285015260005b81811015610ecf57858101830151858201604001528201610eb3565b81811115610ee1576000604083870101525b50601f01601f1916929092016040019392505050565b600060208284031215610f0957600080fd5b5035919050565b60008060408385031215610f2357600080fd5b50508035926020909101359150565b80356001600160a01b0381168114610f4957600080fd5b919050565b600060208284031215610f6057600080fd5b610f6982610f32565b9392505050565b60008060408385031215610f8357600080fd5b82359150610f9360208401610f32565b90509250929050565b6001600160a01b0396871681526020810195909552604085019390935293166060830152911515608082015260a081019190915260c00190565b600181811c90821680610fea57607f821691505b6020821081141561100b57634e487b7160e01b600052602260045260246000fd5b50919050565b6020808252601b908201527f596f75722070726f7065727479206973206e6f742076616c69642e0000000000604082015260600190565b634e487b7160e01b600052601160045260246000fd5b60008261107b57634e487b7160e01b600052601260045260246000fd5b500490565b60008282101561109257611092611048565b500390565b6020808252602c908201527f4f6e6c792074686520676f7665726e6d656e742063616e20706572666f726d2060408201526b3a3434b99030b1ba34b7b71760a11b606082015260800190565b634e487b7160e01b600052603260045260246000fd5b600060001982141561110d5761110d611048565b506001019056fea2646970667358221220c5553d82329fd7e825f5e9064b05a64101b9d969d09d21dd45511bee759e651964736f6c63430008090033",
  "immutableReferences": {},
  "source": "// SPDX-License-Identifier: MIT\r\n\r\npragma solidity ^0.8.9;\r\n\r\ncontract RealEstateNFT {\r\n    string public name;\r\n    address payable public government;\r\n    mapping (uint256 => Property) public properties;\r\n    uint256 public propertyCounter;\r\n\r\n    struct Property {\r\n        address payable owner;\r\n        uint256 price;\r\n        uint256 tax;\r\n        address approvedBuyer;\r\n        bool isValid;\r\n        uint256 id;\r\n        // Transaction[] transactions;\r\n    }\r\n\r\n    event sell_Property (\r\n        address payable owner,\r\n        uint256 price,\r\n        uint256 tax,\r\n        address approvedBuyer,\r\n        bool isValid\r\n    );\r\n\r\n    event approve_Property (\r\n        address payable owner,\r\n        uint256 price,\r\n        uint256 tax,\r\n        address approvedBuyer,\r\n        bool isValid,\r\n        uint256 id\r\n    );\r\n\r\n    event change_Price (\r\n        address payable owner,\r\n        uint256 price,\r\n        uint256 tax,\r\n        address approvedBuyer,\r\n        bool isValid,\r\n        uint256 id\r\n\r\n    );\r\n\r\n    event buy_Property (\r\n        address payable owner,\r\n        uint256 price,\r\n        uint256 tax,\r\n        address approvedBuyer,\r\n        bool isValid,\r\n        uint256 id\r\n    );\r\n\r\n    mapping(uint256 => Transaction[]) public transactions;\r\n\r\n    struct Transaction {\r\n        address previousOwner;\r\n        address newOwner;\r\n        uint256 price;\r\n        uint256 timestamp;\r\n    }\r\n\r\n    // event sell_Transaction (\r\n    //     address previousOwner,\r\n    //     address newOwner,\r\n    //     uint256 price,\r\n    //     uint256 timestamp\r\n    // );\r\n\r\n    // event buy_Transaction (\r\n    //     address previousOwner,\r\n    //     address newOwner,\r\n    //     uint256 price,\r\n    //     uint256 timestamp\r\n    // );\r\n\r\n    constructor(){\r\n        government = payable(msg.sender);\r\n        name = \"Web3 MarketPlace\";\r\n    }\r\n\r\n    function mint(address seller) public onlyGovernment{\r\n        properties[propertyCounter] = Property({\r\n            owner: payable(seller),\r\n            price: 0,\r\n            tax: 0,\r\n            approvedBuyer: address(0),\r\n            isValid: true,\r\n            id:propertyCounter\r\n            // transactions: new Transaction[]\r\n            \r\n        });\r\n        transactions[propertyCounter].push(Transaction({\r\n                previousOwner: address(0),\r\n                newOwner: seller,\r\n                price: 0,\r\n                timestamp: block.timestamp\r\n            }));\r\n        \r\n        emit sell_Property(properties[propertyCounter].owner, properties[propertyCounter].price, properties[propertyCounter].tax, properties[propertyCounter].approvedBuyer, properties[propertyCounter].isValid);\r\n        // emit mint_Transaction(transactions[propertyCounter][0].previousOwner, transactions[propertyCounter][1].newOwner, transactions[propertyCounter][2].price, transactions[propertyCounter][3].timestamp);\r\n        propertyCounter ++;\r\n    }\r\n\r\n    function approveSale(uint256 _propertyId, address _buyer) public onlyValid(_propertyId){\r\n        Property storage property = properties[_propertyId];\r\n        require(property.owner == msg.sender, \"Only the owner can approve sale.\");\r\n        property.approvedBuyer = _buyer;\r\n        emit approve_Property(property.owner, property.price, property.tax, property.approvedBuyer, property.isValid, property.id);\r\n    }\r\n\r\n    function transfer(uint256 _propertyId) public payable onlyValid(_propertyId){\r\n        Property storage property = properties[_propertyId];\r\n        require(property.approvedBuyer == msg.sender, \"Buyer not approved.\");\r\n        require(msg.value >= property.price, \"Insufficient payment.\");\r\n\r\n        property.tax=property.price<40000000000000000000? property.price/3: property.price/5;\r\n        property.owner.transfer(property.price - property.tax);\r\n        government.transfer(property.tax);\r\n        transactions[_propertyId].push(Transaction({\r\n            previousOwner: property.owner,\r\n            newOwner: msg.sender,\r\n            price: property.price,\r\n            timestamp: block.timestamp\r\n        }));\r\n        property.owner = payable(msg.sender);\r\n\r\n        emit buy_Property(property.owner, property.price, property.tax, property.approvedBuyer, property.isValid, property.id);\r\n        // emit sell_Transaction(transactions[_propertyId][0].previousOwner, transactions[_propertyId][1].newOwner, transactions[_propertyId][2].price, transactions[_propertyId][3].timestamp);\r\n\r\n        property.approvedBuyer = address(0);\r\n    }\r\n\r\n    function getProperty(uint256 _propertyId) public view onlyValid(_propertyId) returns(address, uint256, uint256, address) {\r\n        Property storage property = properties[_propertyId];\r\n        return (property.owner, property.price, property.tax, property.approvedBuyer);\r\n    }\r\n\r\n    function getTransaction(uint256 _propertyId) public view returns (address, address, uint256, uint256) {\r\n        Transaction[] memory transaction = transactions[_propertyId];\r\n        return (transaction[1].newOwner, transaction[1].previousOwner,transaction[1].price,transaction[1].timestamp);\r\n    }\r\n\r\n    function changePrice(uint256 _propertyId, uint256 newPrice) public onlyValid(_propertyId){\r\n        require(msg.sender == properties[_propertyId].owner, \"you have to own the property\");\r\n        properties[_propertyId].price = newPrice;\r\n        emit change_Price(properties[_propertyId].owner, properties[_propertyId].price, properties[_propertyId].tax, properties[_propertyId].approvedBuyer, properties[_propertyId].isValid, properties[_propertyId].id);\r\n        \r\n    }\r\n\r\n    function destroyProperty(uint256 _propertyId) public onlyGovernment{\r\n        properties[_propertyId].isValid = false;\r\n    }\r\n\r\n    function makeValid(uint256 _propertyId) public onlyGovernment{\r\n        properties[_propertyId].isValid = true;\r\n    }\r\n\r\n    modifier onlyGovernment() {\r\n        require(msg.sender == government, \"Only the government can perform this action.\");\r\n        _;\r\n    }\r\n\r\n    modifier onlyValid(uint256 _propertyId){\r\n        require(properties[_propertyId].isValid== true, \"Your property is not valid.\");\r\n        _;\r\n    }\r\n\r\n\r\n}\r\n",
  "sourcePath": "C:\\Users\\vishm\\Desktop\\FY-project\\SmartContracts\\contracts\\RealEstateNFT.sol",
  "compiler": {
    "name": "solc",
    "version": "0.8.9+commit.e5eed63a.Emscripten.clang"
  },
  "schemaVersion": "3.4.3",
  "updatedAt": "2023-04-17T10:43:58.649Z",
  "devdoc": {
    "kind": "dev",
    "methods": {},
    "version": 1
  },
  "userdoc": {
    "kind": "user",
    "methods": {},
    "version": 1
  }
}